{
  "contractName": "ComeFundMe",
  "abi": [
    {
      "anonymous": false,
      "inputs": [
        {
          "indexed": false,
          "internalType": "bytes32",
          "name": "campaignId",
          "type": "bytes32"
        },
        {
          "indexed": false,
          "internalType": "address",
          "name": "donor",
          "type": "address"
        },
        {
          "indexed": false,
          "internalType": "uint256",
          "name": "amount",
          "type": "uint256"
        }
      ],
      "name": "CampaignDonationReceived",
      "type": "event"
    },
    {
      "anonymous": false,
      "inputs": [
        {
          "indexed": false,
          "internalType": "bytes32",
          "name": "campaignId",
          "type": "bytes32"
        },
        {
          "indexed": false,
          "internalType": "uint256",
          "name": "fundsRaised",
          "type": "uint256"
        }
      ],
      "name": "CampaignEnded",
      "type": "event"
    },
    {
      "anonymous": false,
      "inputs": [
        {
          "indexed": false,
          "internalType": "bytes32",
          "name": "campaignId",
          "type": "bytes32"
        }
      ],
      "name": "CampaignStarted",
      "type": "event"
    },
    {
      "anonymous": false,
      "inputs": [
        {
          "indexed": true,
          "internalType": "address",
          "name": "previousOwner",
          "type": "address"
        },
        {
          "indexed": true,
          "internalType": "address",
          "name": "newOwner",
          "type": "address"
        }
      ],
      "name": "OwnershipTransferred",
      "type": "event"
    },
    {
      "anonymous": false,
      "inputs": [
        {
          "indexed": false,
          "internalType": "address",
          "name": "account",
          "type": "address"
        }
      ],
      "name": "Paused",
      "type": "event"
    },
    {
      "anonymous": false,
      "inputs": [
        {
          "indexed": false,
          "internalType": "address",
          "name": "account",
          "type": "address"
        }
      ],
      "name": "Unpaused",
      "type": "event"
    },
    {
      "inputs": [],
      "name": "owner",
      "outputs": [
        {
          "internalType": "address",
          "name": "",
          "type": "address"
        }
      ],
      "stateMutability": "view",
      "type": "function"
    },
    {
      "inputs": [],
      "name": "paused",
      "outputs": [
        {
          "internalType": "bool",
          "name": "",
          "type": "bool"
        }
      ],
      "stateMutability": "view",
      "type": "function"
    },
    {
      "inputs": [],
      "name": "renounceOwnership",
      "outputs": [],
      "stateMutability": "nonpayable",
      "type": "function"
    },
    {
      "inputs": [
        {
          "internalType": "address",
          "name": "newOwner",
          "type": "address"
        }
      ],
      "name": "transferOwnership",
      "outputs": [],
      "stateMutability": "nonpayable",
      "type": "function"
    },
    {
      "inputs": [],
      "name": "togglePause",
      "outputs": [],
      "stateMutability": "nonpayable",
      "type": "function"
    },
    {
      "inputs": [
        {
          "internalType": "string",
          "name": "title",
          "type": "string"
        },
        {
          "internalType": "string",
          "name": "description",
          "type": "string"
        }
      ],
      "name": "startCampaign",
      "outputs": [],
      "stateMutability": "nonpayable",
      "type": "function"
    },
    {
      "inputs": [
        {
          "internalType": "bytes32",
          "name": "campaignId",
          "type": "bytes32"
        }
      ],
      "name": "endCampaign",
      "outputs": [],
      "stateMutability": "nonpayable",
      "type": "function"
    },
    {
      "inputs": [
        {
          "internalType": "bytes32",
          "name": "campaignId",
          "type": "bytes32"
        }
      ],
      "name": "donateToCampaign",
      "outputs": [],
      "stateMutability": "payable",
      "type": "function"
    },
    {
      "inputs": [
        {
          "internalType": "bytes32",
          "name": "campaignId",
          "type": "bytes32"
        }
      ],
      "name": "getCampaign",
      "outputs": [
        {
          "components": [
            {
              "internalType": "bool",
              "name": "isAlive",
              "type": "bool"
            },
            {
              "internalType": "address",
              "name": "initiator",
              "type": "address"
            },
            {
              "internalType": "uint256",
              "name": "fundsRaised",
              "type": "uint256"
            },
            {
              "internalType": "string",
              "name": "title",
              "type": "string"
            },
            {
              "internalType": "string",
              "name": "description",
              "type": "string"
            }
          ],
          "internalType": "struct ComeFundMe.Campaign",
          "name": "",
          "type": "tuple"
        }
      ],
      "stateMutability": "view",
      "type": "function"
    },
    {
      "inputs": [
        {
          "internalType": "address",
          "name": "initiator",
          "type": "address"
        },
        {
          "internalType": "string",
          "name": "title",
          "type": "string"
        },
        {
          "internalType": "string",
          "name": "description",
          "type": "string"
        }
      ],
      "name": "getCampaignId",
      "outputs": [
        {
          "internalType": "bytes32",
          "name": "",
          "type": "bytes32"
        }
      ],
      "stateMutability": "pure",
      "type": "function"
    }
  ],
  "bytecode": "0x608060405234801561001057600080fd5b5061002d61002261004c60201b60201c565b61005460201b60201c565b60008060146101000a81548160ff021916908315150217905550610118565b600033905090565b60008060009054906101000a900473ffffffffffffffffffffffffffffffffffffffff169050816000806101000a81548173ffffffffffffffffffffffffffffffffffffffff021916908373ffffffffffffffffffffffffffffffffffffffff1602179055508173ffffffffffffffffffffffffffffffffffffffff168173ffffffffffffffffffffffffffffffffffffffff167f8be0079c531659141344cd1fd0a4f28419497f9722a3daafe3b4186f6b6457e060405160405180910390a35050565b61184d806101276000396000f3fe6080604052600436106100915760003560e01c8063c4ae316811610059578063c4ae316814610155578063cabe04521461016c578063e13475c8146101a9578063e1b86016146101c5578063f2fde38b1461020257610091565b806329777bc6146100965780635c975abb146100bf578063715018a6146100ea5780638c26a73d146101015780638da5cb5b1461012a575b600080fd5b3480156100a257600080fd5b506100bd60048036038101906100b89190610ee6565b61022b565b005b3480156100cb57600080fd5b506100d4610441565b6040516100e19190610f2e565b60405180910390f35b3480156100f657600080fd5b506100ff610457565b005b34801561010d57600080fd5b5061012860048036038101906101239190610fae565b6104df565b005b34801561013657600080fd5b5061013f6106d2565b60405161014c9190611070565b60405180910390f35b34801561016157600080fd5b5061016a6106fb565b005b34801561017857600080fd5b50610193600480360381019061018e9190610ee6565b61079b565b6040516101a091906111d8565b60405180910390f35b6101c360048036038101906101be9190610ee6565b610967565b005b3480156101d157600080fd5b506101ec60048036038101906101e79190611226565b610a78565b6040516101f991906112ca565b60405180910390f35b34801561020e57600080fd5b50610229600480360381019061022491906112e5565b610ab4565b005b610233610441565b15610273576040517f08c379a000000000000000000000000000000000000000000000000000000000815260040161026a9061136f565b60405180910390fd5b6000600160008381526020019081526020016000209050610292610bac565b73ffffffffffffffffffffffffffffffffffffffff168160000160019054906101000a900473ffffffffffffffffffffffffffffffffffffffff1673ffffffffffffffffffffffffffffffffffffffff1614610323576040517f08c379a000000000000000000000000000000000000000000000000000000000815260040161031a906113db565b60405180910390fd5b8060000160009054906101000a900460ff16610374576040517f08c379a000000000000000000000000000000000000000000000000000000000815260040161036b90611447565b60405180910390fd5b60008160000160006101000a81548160ff0219169083151502179055508060000160019054906101000a900473ffffffffffffffffffffffffffffffffffffffff1673ffffffffffffffffffffffffffffffffffffffff166108fc82600101549081150290604051600060405180830381858888f193505050501580156103ff573d6000803e3d6000fd5b507f9d66a5806d3b6212b52c01c830bb2233bd5e58aff556c57c924f026dffbfda29828260010154604051610435929190611476565b60405180910390a15050565b60008060149054906101000a900460ff16905090565b61045f610bac565b73ffffffffffffffffffffffffffffffffffffffff1661047d6106d2565b73ffffffffffffffffffffffffffffffffffffffff16146104d3576040517f08c379a00000000000000000000000000000000000000000000000000000000081526004016104ca906114eb565b60405180910390fd5b6104dd6000610bb4565b565b6104e7610441565b15610527576040517f08c379a000000000000000000000000000000000000000000000000000000000815260040161051e9061136f565b60405180910390fd5b600061053d610534610bac565b86868686610a78565b905060006001600083815260200190815260200160002090508060000160009054906101000a900460ff161580156105c55750600073ffffffffffffffffffffffffffffffffffffffff168160000160019054906101000a900473ffffffffffffffffffffffffffffffffffffffff1673ffffffffffffffffffffffffffffffffffffffff16145b610604576040517f08c379a00000000000000000000000000000000000000000000000000000000081526004016105fb90611557565b60405180910390fd5b60018160000160006101000a81548160ff021916908315150217905550610629610bac565b8160000160016101000a81548173ffffffffffffffffffffffffffffffffffffffff021916908373ffffffffffffffffffffffffffffffffffffffff160217905550858582600201919061067e929190610dbc565b508383826003019190610692929190610dbc565b507f9bb2c9788fbe26c00be74305fbebeb1b918f56515eb45a297d2105decae3755f826040516106c291906112ca565b60405180910390a1505050505050565b60008060009054906101000a900473ffffffffffffffffffffffffffffffffffffffff16905090565b610703610bac565b73ffffffffffffffffffffffffffffffffffffffff166107216106d2565b73ffffffffffffffffffffffffffffffffffffffff1614610777576040517f08c379a000000000000000000000000000000000000000000000000000000000815260040161076e906114eb565b60405180910390fd5b61077f610441565b6107905761078b610c78565b610799565b610798610d1b565b5b565b6107a3610e42565b600160008381526020019081526020016000206040518060a00160405290816000820160009054906101000a900460ff161515151581526020016000820160019054906101000a900473ffffffffffffffffffffffffffffffffffffffff1673ffffffffffffffffffffffffffffffffffffffff1673ffffffffffffffffffffffffffffffffffffffff1681526020016001820154815260200160028201805461084c906115a6565b80601f0160208091040260200160405190810160405280929190818152602001828054610878906115a6565b80156108c55780601f1061089a576101008083540402835291602001916108c5565b820191906000526020600020905b8154815290600101906020018083116108a857829003601f168201915b505050505081526020016003820180546108de906115a6565b80601f016020809104026020016040519081016040528092919081815260200182805461090a906115a6565b80156109575780601f1061092c57610100808354040283529160200191610957565b820191906000526020600020905b81548152906001019060200180831161093a57829003601f168201915b5050505050815250509050919050565b61096f610441565b156109af576040517f08c379a00000000000000000000000000000000000000000000000000000000081526004016109a69061136f565b60405180910390fd5b60006001600083815260200190815260200160002090508060000160009054906101000a900460ff16610a17576040517f08c379a0000000000000000000000000000000000000000000000000000000008152600401610a0e90611447565b60405180910390fd5b34816001016000828254610a2b9190611607565b925050819055507f9923008504d88018be8237b38fc9e7fe856efd8a47be5adf7c6ee48fff5beb2182610a5c610bac565b34604051610a6c9392919061165d565b60405180910390a15050565b60008585858585604051602001610a939594939291906116d0565b60405160208183030381529060405280519060200120905095945050505050565b610abc610bac565b73ffffffffffffffffffffffffffffffffffffffff16610ada6106d2565b73ffffffffffffffffffffffffffffffffffffffff1614610b30576040517f08c379a0000000000000000000000000000000000000000000000000000000008152600401610b27906114eb565b60405180910390fd5b600073ffffffffffffffffffffffffffffffffffffffff168173ffffffffffffffffffffffffffffffffffffffff161415610ba0576040517f08c379a0000000000000000000000000000000000000000000000000000000008152600401610b979061178b565b60405180910390fd5b610ba981610bb4565b50565b600033905090565b60008060009054906101000a900473ffffffffffffffffffffffffffffffffffffffff169050816000806101000a81548173ffffffffffffffffffffffffffffffffffffffff021916908373ffffffffffffffffffffffffffffffffffffffff1602179055508173ffffffffffffffffffffffffffffffffffffffff168173ffffffffffffffffffffffffffffffffffffffff167f8be0079c531659141344cd1fd0a4f28419497f9722a3daafe3b4186f6b6457e060405160405180910390a35050565b610c80610441565b15610cc0576040517f08c379a0000000000000000000000000000000000000000000000000000000008152600401610cb79061136f565b60405180910390fd5b6001600060146101000a81548160ff0219169083151502179055507f62e78cea01bee320cd4e420270b5ea74000d11b0c9f74754ebdbfc544b05a258610d04610bac565b604051610d119190611070565b60405180910390a1565b610d23610441565b610d62576040517f08c379a0000000000000000000000000000000000000000000000000000000008152600401610d59906117f7565b60405180910390fd5b60008060146101000a81548160ff0219169083151502179055507f5db9ee0a495bf2e6ff9c91a7834c1ba4fdd244a5e8aa4e537bd38aeae4b073aa610da5610bac565b604051610db29190611070565b60405180910390a1565b828054610dc8906115a6565b90600052602060002090601f016020900481019282610dea5760008555610e31565b82601f10610e0357803560ff1916838001178555610e31565b82800160010185558215610e31579182015b82811115610e30578235825591602001919060010190610e15565b5b509050610e3e9190610e89565b5090565b6040518060a00160405280600015158152602001600073ffffffffffffffffffffffffffffffffffffffff1681526020016000815260200160608152602001606081525090565b5b80821115610ea2576000816000905550600101610e8a565b5090565b600080fd5b600080fd5b6000819050919050565b610ec381610eb0565b8114610ece57600080fd5b50565b600081359050610ee081610eba565b92915050565b600060208284031215610efc57610efb610ea6565b5b6000610f0a84828501610ed1565b91505092915050565b60008115159050919050565b610f2881610f13565b82525050565b6000602082019050610f436000830184610f1f565b92915050565b600080fd5b600080fd5b600080fd5b60008083601f840112610f6e57610f6d610f49565b5b8235905067ffffffffffffffff811115610f8b57610f8a610f4e565b5b602083019150836001820283011115610fa757610fa6610f53565b5b9250929050565b60008060008060408587031215610fc857610fc7610ea6565b5b600085013567ffffffffffffffff811115610fe657610fe5610eab565b5b610ff287828801610f58565b9450945050602085013567ffffffffffffffff81111561101557611014610eab565b5b61102187828801610f58565b925092505092959194509250565b600073ffffffffffffffffffffffffffffffffffffffff82169050919050565b600061105a8261102f565b9050919050565b61106a8161104f565b82525050565b60006020820190506110856000830184611061565b92915050565b61109481610f13565b82525050565b6110a38161104f565b82525050565b6000819050919050565b6110bc816110a9565b82525050565b600081519050919050565b600082825260208201905092915050565b60005b838110156110fc5780820151818401526020810190506110e1565b8381111561110b576000848401525b50505050565b6000601f19601f8301169050919050565b600061112d826110c2565b61113781856110cd565b93506111478185602086016110de565b61115081611111565b840191505092915050565b600060a083016000830151611173600086018261108b565b506020830151611186602086018261109a565b50604083015161119960408601826110b3565b50606083015184820360608601526111b18282611122565b915050608083015184820360808601526111cb8282611122565b9150508091505092915050565b600060208201905081810360008301526111f2818461115b565b905092915050565b6112038161104f565b811461120e57600080fd5b50565b600081359050611220816111fa565b92915050565b60008060008060006060868803121561124257611241610ea6565b5b600061125088828901611211565b955050602086013567ffffffffffffffff81111561127157611270610eab565b5b61127d88828901610f58565b9450945050604086013567ffffffffffffffff8111156112a05761129f610eab565b5b6112ac88828901610f58565b92509250509295509295909350565b6112c481610eb0565b82525050565b60006020820190506112df60008301846112bb565b92915050565b6000602082840312156112fb576112fa610ea6565b5b600061130984828501611211565b91505092915050565b600082825260208201905092915050565b7f5061757361626c653a2070617573656400000000000000000000000000000000600082015250565b6000611359601083611312565b915061136482611323565b602082019050919050565b600060208201905081810360008301526113888161134c565b9050919050565b7f4e6f742063616d706169676e206f776e65720000000000000000000000000000600082015250565b60006113c5601283611312565b91506113d08261138f565b602082019050919050565b600060208201905081810360008301526113f4816113b8565b9050919050565b7f416c726561647920656e64656400000000000000000000000000000000000000600082015250565b6000611431600d83611312565b915061143c826113fb565b602082019050919050565b6000602082019050818103600083015261146081611424565b9050919050565b611470816110a9565b82525050565b600060408201905061148b60008301856112bb565b6114986020830184611467565b9392505050565b7f4f776e61626c653a2063616c6c6572206973206e6f7420746865206f776e6572600082015250565b60006114d5602083611312565b91506114e08261149f565b602082019050919050565b60006020820190508181036000830152611504816114c8565b9050919050565b7f43616d706169676e206578697374730000000000000000000000000000000000600082015250565b6000611541600f83611312565b915061154c8261150b565b602082019050919050565b6000602082019050818103600083015261157081611534565b9050919050565b7f4e487b7100000000000000000000000000000000000000000000000000000000600052602260045260246000fd5b600060028204905060018216806115be57607f821691505b602082108114156115d2576115d1611577565b5b50919050565b7f4e487b7100000000000000000000000000000000000000000000000000000000600052601160045260246000fd5b6000611612826110a9565b915061161d836110a9565b9250827fffffffffffffffffffffffffffffffffffffffffffffffffffffffffffffffff03821115611652576116516115d8565b5b828201905092915050565b600060608201905061167260008301866112bb565b61167f6020830185611061565b61168c6040830184611467565b949350505050565b82818337600083830152505050565b60006116af8385611312565b93506116bc838584611694565b6116c583611111565b840190509392505050565b60006060820190506116e56000830188611061565b81810360208301526116f88186886116a3565b9050818103604083015261170d8184866116a3565b90509695505050505050565b7f4f776e61626c653a206e6577206f776e657220697320746865207a65726f206160008201527f6464726573730000000000000000000000000000000000000000000000000000602082015250565b6000611775602683611312565b915061178082611719565b604082019050919050565b600060208201905081810360008301526117a481611768565b9050919050565b7f5061757361626c653a206e6f7420706175736564000000000000000000000000600082015250565b60006117e1601483611312565b91506117ec826117ab565b602082019050919050565b60006020820190508181036000830152611810816117d4565b905091905056fea264697066735822122068dddd1c07038c48bbc4dc8f0d807775c749af38628924b8f0419f7f7205cfaa64736f6c634300080b0033",
  "immutableReferences": {},
  "source": "\r\n//SPDX-License-Identifier: UNLICENSED\r\npragma solidity ^0.8.0;\r\n\r\nimport \"@openzeppelin/contracts/access/Ownable.sol\";\r\nimport \"@openzeppelin/contracts/security/Pausable.sol\";\r\n\r\ncontract ComeFundMe is Ownable, Pausable {\r\nstruct Campaign {\r\nbool isAlive;\r\naddress initiator;\r\nuint256 fundsRaised;\r\nstring title;\r\nstring description;\r\n}\r\nmapping(bytes32 => Campaign) private _campaigns;\r\n\r\nevent CampaignStarted(bytes32 campaignId);\r\nevent CampaignEnded(bytes32 campaignId, uint256 fundsRaised);\r\nevent CampaignDonationReceived(\r\nbytes32 campaignId,\r\naddress donor,\r\nuint256 amount\r\n);\r\n\r\n/**\r\n@notice Toggles the pause status using ternary operators\r\n@dev If paused() is true, then we unpause. Else, pause.\r\n*/\r\nfunction togglePause() external onlyOwner {\r\npaused() ? _unpause() : _pause();\r\n}\r\n\r\n/**\r\n@notice Starts a fundraising campaign\r\n@param title The title of this new campaign (to be displayed on a website, for example)\r\n@param description The description of this new campaign (to be displayed on a website, for example)\r\n*/\r\nfunction startCampaign(string calldata title, string calldata description)\r\nexternal\r\nwhenNotPaused\r\n{\r\nbytes32 campaignId = getCampaignId(_msgSender(), title, description);\r\nCampaign storage c = _campaigns[campaignId];\r\nrequire(!c.isAlive && c.initiator == address(0), \"Campaign exists\");\r\nc.isAlive = true;\r\nc.initiator = _msgSender();\r\nc.title = title;\r\nc.description = description;\r\nemit CampaignStarted(campaignId);\r\n}\r\n\r\n/**\r\n@notice Ends a fundraising campaign, all raised funds transferred to the initiator\r\n@dev Can only be called by the campaign initiator\r\n@param campaignId The ID of the campaign that we are trying to end\r\n*/\r\nfunction endCampaign(bytes32 campaignId) external whenNotPaused {\r\nCampaign storage c = _campaigns[campaignId];\r\nrequire(c.initiator == _msgSender(), \"Not campaign owner\");\r\nrequire(c.isAlive, \"Already ended\");\r\nc.isAlive = false;\r\npayable(c.initiator).transfer(c.fundsRaised);\r\nemit CampaignEnded(campaignId, c.fundsRaised);\r\n}\r\n\r\n/**\r\n@notice Donates ETH to a certain campaign\r\n@param campaignId The ID of the campaign that we are trying to donate to\r\n*/\r\nfunction donateToCampaign(bytes32 campaignId)\r\nexternal\r\npayable\r\nwhenNotPaused\r\n{\r\nCampaign storage c = _campaigns[campaignId];\r\nrequire(c.isAlive, \"Already ended\");\r\nc.fundsRaised += msg.value;\r\nemit CampaignDonationReceived(campaignId, _msgSender(), msg.value);\r\n}\r\n\r\n/**\r\n@notice Returns information for a specific campaign\r\n@param campaignId The ID of the campaign that we are trying to query\r\n@return A struct containing information about the given campaign\r\n*/\r\nfunction getCampaign(bytes32 campaignId)\r\nexternal\r\nview\r\nreturns (Campaign memory)\r\n{\r\nreturn _campaigns[campaignId];\r\n}\r\n\r\n/**\r\n@notice Generates a campaign ID given identifying information\r\n@param initiator The initiator of the campaign\r\n@param title The title of the campaign\r\n@param description The description of the campaign\r\n@return The generated campaign ID\r\n*/\r\nfunction getCampaignId(\r\naddress initiator,\r\nstring calldata title,\r\nstring calldata description\r\n) public pure returns (bytes32) {\r\nreturn keccak256(abi.encode(initiator, title, description));\r\n}\r\n}",
  "sourcePath": "C:\\Users\\Pavon\\Desktop\\shacke4\\contracts\\comefundme.sol",
  "compiler": {
    "name": "solc",
    "version": "0.8.11+commit.d7f03943.Emscripten.clang"
  },
  "schemaVersion": "3.4.4",
  "updatedAt": "2022-03-21T20:00:20.848Z",
  "devdoc": {
    "kind": "dev",
    "methods": {
      "donateToCampaign(bytes32)": {
        "params": {
          "campaignId": "The ID of the campaign that we are trying to donate to"
        }
      },
      "endCampaign(bytes32)": {
        "details": "Can only be called by the campaign initiator",
        "params": {
          "campaignId": "The ID of the campaign that we are trying to end"
        }
      },
      "getCampaign(bytes32)": {
        "params": {
          "campaignId": "The ID of the campaign that we are trying to query"
        },
        "returns": {
          "_0": "A struct containing information about the given campaign"
        }
      },
      "getCampaignId(address,string,string)": {
        "params": {
          "description": "The description of the campaign",
          "initiator": "The initiator of the campaign",
          "title": "The title of the campaign"
        },
        "returns": {
          "_0": "The generated campaign ID"
        }
      },
      "owner()": {
        "details": "Returns the address of the current owner."
      },
      "paused()": {
        "details": "Returns true if the contract is paused, and false otherwise."
      },
      "renounceOwnership()": {
        "details": "Leaves the contract without owner. It will not be possible to call `onlyOwner` functions anymore. Can only be called by the current owner. NOTE: Renouncing ownership will leave the contract without an owner, thereby removing any functionality that is only available to the owner."
      },
      "startCampaign(string,string)": {
        "params": {
          "description": "The description of this new campaign (to be displayed on a website, for example)",
          "title": "The title of this new campaign (to be displayed on a website, for example)"
        }
      },
      "togglePause()": {
        "details": "If paused() is true, then we unpause. Else, pause."
      },
      "transferOwnership(address)": {
        "details": "Transfers ownership of the contract to a new account (`newOwner`). Can only be called by the current owner."
      }
    },
    "version": 1
  },
  "userdoc": {
    "kind": "user",
    "methods": {
      "donateToCampaign(bytes32)": {
        "notice": "Donates ETH to a certain campaign"
      },
      "endCampaign(bytes32)": {
        "notice": "Ends a fundraising campaign, all raised funds transferred to the initiator"
      },
      "getCampaign(bytes32)": {
        "notice": "Returns information for a specific campaign"
      },
      "getCampaignId(address,string,string)": {
        "notice": "Generates a campaign ID given identifying information"
      },
      "startCampaign(string,string)": {
        "notice": "Starts a fundraising campaign"
      },
      "togglePause()": {
        "notice": "Toggles the pause status using ternary operators"
      }
    },
    "version": 1
  }
}