{
  "contractName": "debay",
  "abi": [
    {
      "inputs": [],
      "stateMutability": "nonpayable",
      "type": "constructor"
    },
    {
      "inputs": [
        {
          "internalType": "bytes32",
          "name": "",
          "type": "bytes32"
        }
      ],
      "name": "auctions",
      "outputs": [
        {
          "internalType": "address",
          "name": "initiator",
          "type": "address"
        },
        {
          "internalType": "address",
          "name": "highest_bidder",
          "type": "address"
        },
        {
          "internalType": "address",
          "name": "winner",
          "type": "address"
        },
        {
          "internalType": "string",
          "name": "item_name",
          "type": "string"
        },
        {
          "internalType": "string",
          "name": "image_url",
          "type": "string"
        },
        {
          "internalType": "string",
          "name": "description",
          "type": "string"
        },
        {
          "internalType": "uint256",
          "name": "price_floor",
          "type": "uint256"
        },
        {
          "internalType": "uint256",
          "name": "deadline",
          "type": "uint256"
        },
        {
          "internalType": "bool",
          "name": "finished",
          "type": "bool"
        }
      ],
      "stateMutability": "view",
      "type": "function",
      "constant": true
    },
    {
      "inputs": [
        {
          "internalType": "address",
          "name": "",
          "type": "address"
        }
      ],
      "name": "userfunds",
      "outputs": [
        {
          "internalType": "uint256",
          "name": "",
          "type": "uint256"
        }
      ],
      "stateMutability": "view",
      "type": "function",
      "constant": true
    },
    {
      "inputs": [],
      "name": "togglePause",
      "outputs": [],
      "stateMutability": "nonpayable",
      "type": "function"
    },
    {
      "inputs": [
        {
          "internalType": "string",
          "name": "name",
          "type": "string"
        },
        {
          "internalType": "string",
          "name": "imgUrl",
          "type": "string"
        },
        {
          "internalType": "string",
          "name": "description",
          "type": "string"
        },
        {
          "internalType": "uint256",
          "name": "floor",
          "type": "uint256"
        },
        {
          "internalType": "uint256",
          "name": "deadline",
          "type": "uint256"
        }
      ],
      "name": "startAuction",
      "outputs": [
        {
          "internalType": "bytes32",
          "name": "",
          "type": "bytes32"
        }
      ],
      "stateMutability": "nonpayable",
      "type": "function"
    },
    {
      "inputs": [
        {
          "internalType": "bytes32",
          "name": "auctionId",
          "type": "bytes32"
        }
      ],
      "name": "bid",
      "outputs": [],
      "stateMutability": "payable",
      "type": "function",
      "payable": true
    },
    {
      "inputs": [
        {
          "internalType": "bytes32",
          "name": "auctionId",
          "type": "bytes32"
        },
        {
          "internalType": "uint256",
          "name": "amount",
          "type": "uint256"
        }
      ],
      "name": "bid",
      "outputs": [],
      "stateMutability": "nonpayable",
      "type": "function"
    },
    {
      "inputs": [
        {
          "internalType": "bytes32",
          "name": "auctionId",
          "type": "bytes32"
        }
      ],
      "name": "settle",
      "outputs": [],
      "stateMutability": "nonpayable",
      "type": "function"
    },
    {
      "inputs": [],
      "name": "deposit",
      "outputs": [],
      "stateMutability": "payable",
      "type": "function",
      "payable": true
    },
    {
      "inputs": [],
      "name": "withdraw",
      "outputs": [],
      "stateMutability": "nonpayable",
      "type": "function"
    },
    {
      "inputs": [
        {
          "internalType": "bytes32",
          "name": "auctionId",
          "type": "bytes32"
        }
      ],
      "name": "see_winner",
      "outputs": [
        {
          "internalType": "address",
          "name": "",
          "type": "address"
        }
      ],
      "stateMutability": "view",
      "type": "function",
      "constant": true
    },
    {
      "inputs": [
        {
          "internalType": "bytes32",
          "name": "auctionId",
          "type": "bytes32"
        }
      ],
      "name": "see_highest_bidder",
      "outputs": [
        {
          "internalType": "address",
          "name": "",
          "type": "address"
        }
      ],
      "stateMutability": "view",
      "type": "function",
      "constant": true
    },
    {
      "inputs": [
        {
          "internalType": "string",
          "name": "name",
          "type": "string"
        },
        {
          "internalType": "string",
          "name": "imgUrl",
          "type": "string"
        },
        {
          "internalType": "string",
          "name": "description",
          "type": "string"
        },
        {
          "internalType": "uint256",
          "name": "floor",
          "type": "uint256"
        },
        {
          "internalType": "uint256",
          "name": "deadline",
          "type": "uint256"
        }
      ],
      "name": "getAuctionId",
      "outputs": [
        {
          "internalType": "bytes32",
          "name": "",
          "type": "bytes32"
        }
      ],
      "stateMutability": "pure",
      "type": "function",
      "constant": true
    }
  ],
  "bytecode": "0x608060405234801561001057600080fd5b5033600060016101000a81548173ffffffffffffffffffffffffffffffffffffffff021916908373ffffffffffffffffffffffffffffffffffffffff160217905550611d2e806100616000396000f3fe6080604052600436106100a75760003560e01c8063987757dd11610064578063987757dd146101db5780639962f6cf14610204578063c4ae316814610241578063cd772f5c14610258578063d0e30db014610281578063e65e91bb1461028b576100a7565b80630df347c2146100ac57806311592de1146100e9578063122da14a146101265780631edbc5be146101635780633ccfd60b146101a8578063957bb1e0146101bf575b600080fd5b3480156100b857600080fd5b506100d360048036038101906100ce919061138e565b6102c8565b6040516100e091906113fc565b60405180910390f35b3480156100f557600080fd5b50610110600480360381019061010b919061138e565b610308565b60405161011d91906113fc565b60405180910390f35b34801561013257600080fd5b5061014d600480360381019061014891906114b2565b610348565b60405161015a919061159d565b60405180910390f35b34801561016f57600080fd5b5061018a6004803603810190610185919061138e565b6106c8565b60405161019f9998979695949392919061167b565b60405180910390f35b3480156101b457600080fd5b506101bd61091b565b005b6101d960048036038101906101d4919061138e565b610ac4565b005b3480156101e757600080fd5b5061020260048036038101906101fd919061138e565b610b32565b005b34801561021057600080fd5b5061022b600480360381019061022691906114b2565b610cce565b604051610238919061159d565b60405180910390f35b34801561024d57600080fd5b50610256610d18565b005b34801561026457600080fd5b5061027f600480360381019061027a919061171d565b610dbf565b005b610289610ecf565b005b34801561029757600080fd5b506102b260048036038101906102ad9190611789565b610f7b565b6040516102bf91906117b6565b60405180910390f35b60006001600083815260200190815260200160002060010160009054906101000a900473ffffffffffffffffffffffffffffffffffffffff169050919050565b60006001600083815260200190815260200160002060020160009054906101000a900473ffffffffffffffffffffffffffffffffffffffff169050919050565b600080151560008054906101000a900460ff1615151461039d576040517f08c379a00000000000000000000000000000000000000000000000000000000081526004016103949061181d565b60405180910390fd5b600089898989898989896040516020016103be98979695949392919061189d565b6040516020818303038152906040528051906020012090506040518061012001604052803373ffffffffffffffffffffffffffffffffffffffff168152602001600073ffffffffffffffffffffffffffffffffffffffff168152602001600073ffffffffffffffffffffffffffffffffffffffff1681526020018b8b8080601f016020809104026020016040519081016040528093929190818152602001838380828437600081840152601f19601f82011690508083019250505050505050815260200189898080601f016020809104026020016040519081016040528093929190818152602001838380828437600081840152601f19601f82011690508083019250505050505050815260200187878080601f016020809104026020016040519081016040528093929190818152602001838380828437600081840152601f19601f820116905080830192505050505050508152602001858152602001610e108561052a9190611925565b42610535919061197f565b8152602001600015158152506001600083815260200190815260200160002060008201518160000160006101000a81548173ffffffffffffffffffffffffffffffffffffffff021916908373ffffffffffffffffffffffffffffffffffffffff16021790555060208201518160010160006101000a81548173ffffffffffffffffffffffffffffffffffffffff021916908373ffffffffffffffffffffffffffffffffffffffff16021790555060408201518160020160006101000a81548173ffffffffffffffffffffffffffffffffffffffff021916908373ffffffffffffffffffffffffffffffffffffffff16021790555060608201518160030190805190602001906106459291906112ab565b5060808201518160040190805190602001906106629291906112ab565b5060a082015181600501908051906020019061067f9291906112ab565b5060c0820151816006015560e082015181600701556101008201518160080160006101000a81548160ff0219169083151502179055509050508091505098975050505050505050565b60016020528060005260406000206000915090508060000160009054906101000a900473ffffffffffffffffffffffffffffffffffffffff16908060010160009054906101000a900473ffffffffffffffffffffffffffffffffffffffff16908060020160009054906101000a900473ffffffffffffffffffffffffffffffffffffffff169080600301805461075d90611a04565b80601f016020809104026020016040519081016040528092919081815260200182805461078990611a04565b80156107d65780601f106107ab576101008083540402835291602001916107d6565b820191906000526020600020905b8154815290600101906020018083116107b957829003601f168201915b5050505050908060040180546107eb90611a04565b80601f016020809104026020016040519081016040528092919081815260200182805461081790611a04565b80156108645780601f1061083957610100808354040283529160200191610864565b820191906000526020600020905b81548152906001019060200180831161084757829003601f168201915b50505050509080600501805461087990611a04565b80601f01602080910402602001604051908101604052809291908181526020018280546108a590611a04565b80156108f25780601f106108c7576101008083540402835291602001916108f2565b820191906000526020600020905b8154815290600101906020018083116108d557829003601f168201915b5050505050908060060154908060070154908060080160009054906101000a900460ff16905089565b6000151560008054906101000a900460ff1615151461096f576040517f08c379a00000000000000000000000000000000000000000000000000000000081526004016109669061181d565b60405180910390fd5b6000600260003373ffffffffffffffffffffffffffffffffffffffff1673ffffffffffffffffffffffffffffffffffffffff16815260200190815260200160002054116109f1576040517f08c379a00000000000000000000000000000000000000000000000000000000081526004016109e890611a82565b60405180910390fd5b6000600260003373ffffffffffffffffffffffffffffffffffffffff1673ffffffffffffffffffffffffffffffffffffffff1681526020019081526020016000205490506000600260003373ffffffffffffffffffffffffffffffffffffffff1673ffffffffffffffffffffffffffffffffffffffff168152602001908152602001600020819055503373ffffffffffffffffffffffffffffffffffffffff166108fc829081150290604051600060405180830381858888f19350505050158015610ac0573d6000803e3d6000fd5b5050565b6000151560008054906101000a900460ff16151514610b18576040517f08c379a0000000000000000000000000000000000000000000000000000000008152600401610b0f9061181d565b60405180910390fd5b60003411610b2557600080fd5b610b2f3482610f93565b50565b6000151560008054906101000a900460ff16151514610b86576040517f08c379a0000000000000000000000000000000000000000000000000000000008152600401610b7d9061181d565b60405180910390fd5b42600160008381526020019081526020016000206007015411158015610bd35750600015156001600083815260200190815260200160002060080160009054906101000a900460ff161515145b610c12576040517f08c379a0000000000000000000000000000000000000000000000000000000008152600401610c0990611b14565b60405180910390fd5b600180600083815260200190815260200160002060080160006101000a81548160ff0219169083151502179055506001600082815260200190815260200160002060010160009054906101000a900473ffffffffffffffffffffffffffffffffffffffff166001600083815260200190815260200160002060020160006101000a81548173ffffffffffffffffffffffffffffffffffffffff021916908373ffffffffffffffffffffffffffffffffffffffff16021790555050565b6000808989898989898989604051602001610cf098979695949392919061189d565b6040516020818303038152906040528051906020012090508091505098975050505050505050565b600060019054906101000a900473ffffffffffffffffffffffffffffffffffffffff1673ffffffffffffffffffffffffffffffffffffffff163373ffffffffffffffffffffffffffffffffffffffff1614610d7257600080fd5b60008054906101000a900460ff16610da25760016000806101000a81548160ff0219169083151502179055610dbc565b60008060006101000a81548160ff02191690831515021790555b50565b6000151560008054906101000a900460ff16151514610e13576040517f08c379a0000000000000000000000000000000000000000000000000000000008152600401610e0a9061181d565b60405180910390fd5b600081118015610e625750600260003373ffffffffffffffffffffffffffffffffffffffff1673ffffffffffffffffffffffffffffffffffffffff168152602001908152602001600020548111155b610e6b57600080fd5b610e758183610f93565b80600260003373ffffffffffffffffffffffffffffffffffffffff1673ffffffffffffffffffffffffffffffffffffffff1681526020019081526020016000206000828254610ec49190611b34565b925050819055505050565b6000151560008054906101000a900460ff16151514610f23576040517f08c379a0000000000000000000000000000000000000000000000000000000008152600401610f1a9061181d565b60405180910390fd5b34600260003373ffffffffffffffffffffffffffffffffffffffff1673ffffffffffffffffffffffffffffffffffffffff1681526020019081526020016000206000828254610f72919061197f565b92505081905550565b60026020528060005260406000206000915090505481565b60006001600083815260200190815260200160002090503373ffffffffffffffffffffffffffffffffffffffff168160000160009054906101000a900473ffffffffffffffffffffffffffffffffffffffff1673ffffffffffffffffffffffffffffffffffffffff16141561100757600080fd5b3373ffffffffffffffffffffffffffffffffffffffff168160010160009054906101000a900473ffffffffffffffffffffffffffffffffffffffff1673ffffffffffffffffffffffffffffffffffffffff16141561106457600080fd5b428160070154116110aa576040517f08c379a00000000000000000000000000000000000000000000000000000000081526004016110a190611bb4565b60405180910390fd5b828160060154106110f0576040517f08c379a00000000000000000000000000000000000000000000000000000000081526004016110e790611c46565b60405180910390fd5b3373ffffffffffffffffffffffffffffffffffffffff168160010160009054906101000a900473ffffffffffffffffffffffffffffffffffffffff1673ffffffffffffffffffffffffffffffffffffffff161415611183576040517f08c379a000000000000000000000000000000000000000000000000000000000815260040161117a90611cd8565b60405180910390fd5b600073ffffffffffffffffffffffffffffffffffffffff168160010160009054906101000a900473ffffffffffffffffffffffffffffffffffffffff1673ffffffffffffffffffffffffffffffffffffffff161461125a578060060154600260008360010160009054906101000a900473ffffffffffffffffffffffffffffffffffffffff1673ffffffffffffffffffffffffffffffffffffffff1673ffffffffffffffffffffffffffffffffffffffff1681526020019081526020016000206000828254611252919061197f565b925050819055505b828160060181905550338160010160006101000a81548173ffffffffffffffffffffffffffffffffffffffff021916908373ffffffffffffffffffffffffffffffffffffffff160217905550505050565b8280546112b790611a04565b90600052602060002090601f0160209004810192826112d95760008555611320565b82601f106112f257805160ff1916838001178555611320565b82800160010185558215611320579182015b8281111561131f578251825591602001919060010190611304565b5b50905061132d9190611331565b5090565b5b8082111561134a576000816000905550600101611332565b5090565b600080fd5b600080fd5b6000819050919050565b61136b81611358565b811461137657600080fd5b50565b60008135905061138881611362565b92915050565b6000602082840312156113a4576113a361134e565b5b60006113b284828501611379565b91505092915050565b600073ffffffffffffffffffffffffffffffffffffffff82169050919050565b60006113e6826113bb565b9050919050565b6113f6816113db565b82525050565b600060208201905061141160008301846113ed565b92915050565b600080fd5b600080fd5b600080fd5b60008083601f84011261143c5761143b611417565b5b8235905067ffffffffffffffff8111156114595761145861141c565b5b60208301915083600182028301111561147557611474611421565b5b9250929050565b6000819050919050565b61148f8161147c565b811461149a57600080fd5b50565b6000813590506114ac81611486565b92915050565b60008060008060008060008060a0898b0312156114d2576114d161134e565b5b600089013567ffffffffffffffff8111156114f0576114ef611353565b5b6114fc8b828c01611426565b9850985050602089013567ffffffffffffffff81111561151f5761151e611353565b5b61152b8b828c01611426565b9650965050604089013567ffffffffffffffff81111561154e5761154d611353565b5b61155a8b828c01611426565b9450945050606061156d8b828c0161149d565b925050608061157e8b828c0161149d565b9150509295985092959890939650565b61159781611358565b82525050565b60006020820190506115b2600083018461158e565b92915050565b600081519050919050565b600082825260208201905092915050565b60005b838110156115f25780820151818401526020810190506115d7565b83811115611601576000848401525b50505050565b6000601f19601f8301169050919050565b6000611623826115b8565b61162d81856115c3565b935061163d8185602086016115d4565b61164681611607565b840191505092915050565b61165a8161147c565b82525050565b60008115159050919050565b61167581611660565b82525050565b600061012082019050611691600083018c6113ed565b61169e602083018b6113ed565b6116ab604083018a6113ed565b81810360608301526116bd8189611618565b905081810360808301526116d18188611618565b905081810360a08301526116e58187611618565b90506116f460c0830186611651565b61170160e0830185611651565b61170f61010083018461166c565b9a9950505050505050505050565b600080604083850312156117345761173361134e565b5b600061174285828601611379565b92505060206117538582860161149d565b9150509250929050565b611766816113db565b811461177157600080fd5b50565b6000813590506117838161175d565b92915050565b60006020828403121561179f5761179e61134e565b5b60006117ad84828501611774565b91505092915050565b60006020820190506117cb6000830184611651565b92915050565b7f436f6e7472616374207061757365642100000000000000000000000000000000600082015250565b60006118076010836115c3565b9150611812826117d1565b602082019050919050565b60006020820190508181036000830152611836816117fa565b9050919050565b600081905092915050565b82818337600083830152505050565b6000611863838561183d565b9350611870838584611848565b82840190509392505050565b6000819050919050565b6118976118928261147c565b61187c565b82525050565b60006118aa828a8c611857565b91506118b782888a611857565b91506118c4828688611857565b91506118d08285611886565b6020820191506118e08284611886565b6020820191508190509998505050505050505050565b7f4e487b7100000000000000000000000000000000000000000000000000000000600052601160045260246000fd5b60006119308261147c565b915061193b8361147c565b9250817fffffffffffffffffffffffffffffffffffffffffffffffffffffffffffffffff0483118215151615611974576119736118f6565b5b828202905092915050565b600061198a8261147c565b91506119958361147c565b9250827fffffffffffffffffffffffffffffffffffffffffffffffffffffffffffffffff038211156119ca576119c96118f6565b5b828201905092915050565b7f4e487b7100000000000000000000000000000000000000000000000000000000600052602260045260246000fd5b60006002820490506001821680611a1c57607f821691505b60208210811415611a3057611a2f6119d5565b5b50919050565b7f596f7520646f6e277420686176652073617665642066756e64732e0000000000600082015250565b6000611a6c601b836115c3565b9150611a7782611a36565b602082019050919050565b60006020820190508181036000830152611a9b81611a5f565b9050919050565b7f41756374696f6e20646561646c696e65206973206e6f74206163636f6d706c6960008201527f736865642e000000000000000000000000000000000000000000000000000000602082015250565b6000611afe6025836115c3565b9150611b0982611aa2565b604082019050919050565b60006020820190508181036000830152611b2d81611af1565b9050919050565b6000611b3f8261147c565b9150611b4a8361147c565b925082821015611b5d57611b5c6118f6565b5b828203905092915050565b7f41756374696f6e20657870697265642e00000000000000000000000000000000600082015250565b6000611b9e6010836115c3565b9150611ba982611b68565b602082019050919050565b60006020820190508181036000830152611bcd81611b91565b9050919050565b7f596f7572206269642069736e277420656e6f75676820746f207265706c61636560008201527f2074686520707269636520666c6f6f722e000000000000000000000000000000602082015250565b6000611c306031836115c3565b9150611c3b82611bd4565b604082019050919050565b60006020820190508181036000830152611c5f81611c23565b9050919050565b7f596f7520616c726561647920617265207468652068696768657374206269646460008201527f65722e0000000000000000000000000000000000000000000000000000000000602082015250565b6000611cc26023836115c3565b9150611ccd82611c66565b604082019050919050565b60006020820190508181036000830152611cf181611cb5565b905091905056fea26469706673582212208d08508829948934b21d668af4505465ca95369c82854053e347979a299cebb564736f6c634300080b0033",
  "immutableReferences": {},
  "source": "// SPDX-License-Identifier: UNLICENSED\r\n\r\npragma solidity ^ 0.8.0;\r\n\r\ncontract debay {\r\n\r\n    bool contract_paused;\r\n    address admin;\r\n\r\n    constructor () {\r\n        admin = msg.sender;\r\n    }\r\n\r\n    struct auction {\r\n        address initiator;\r\n        address highest_bidder;\r\n        address winner;\r\n        string item_name;\r\n        string image_url;\r\n        string description;\r\n        uint price_floor;\r\n        uint deadline;\r\n        bool finished;\r\n    }\r\n\r\n    mapping(bytes32 => auction) public auctions;\r\n    mapping(address => uint) public userfunds;\r\n\r\n    function togglePause() public {\r\n        require(msg.sender == admin);\r\n        (contract_paused) ? contract_paused = false : contract_paused = true;\r\n    }\r\n    \r\n\r\n    function startAuction(string calldata name, string calldata imgUrl, string calldata description, uint256 floor, uint256 deadline) external onlyNotPaused returns (bytes32) {\r\n        \r\n        bytes32 auctionIdGenerator = keccak256(abi.encodePacked(name, imgUrl, description, floor, deadline));\r\n        auctions[auctionIdGenerator] = auction(msg.sender, address(0), address(0), name, imgUrl, description, floor, block.timestamp + deadline * 1 hours, false);\r\n\r\n        return auctionIdGenerator;\r\n\r\n    }\r\n\r\n    function bid_algorithm(uint amount, bytes32 auctionId) private  {\r\n\r\n        auction storage _auction = auctions[auctionId];\r\n        require(_auction.initiator != msg.sender);\r\n        require(_auction.highest_bidder != msg.sender);\r\n        require(_auction.deadline > block.timestamp, \"Auction expired.\");\r\n        require(_auction.price_floor < amount, \"Your bid isn't enough to replace the price floor.\");\r\n        require(_auction.highest_bidder != msg.sender, \"You already are the highest bidder.\");\r\n        \r\n        if (_auction.highest_bidder != address(0)) {\r\n            userfunds[_auction.highest_bidder] += _auction.price_floor;\r\n        }\r\n\r\n        _auction.price_floor =  amount;\r\n        _auction.highest_bidder = msg.sender;\r\n\r\n    }\r\n\r\n    function bid(bytes32 auctionId) external payable onlyNotPaused {\r\n        require(msg.value > 0);\r\n        bid_algorithm(msg.value, auctionId);\r\n    }\r\n    \r\n    function bid(bytes32 auctionId, uint256 amount) external onlyNotPaused {\r\n        require(amount > 0 && amount <= userfunds[msg.sender]);\r\n        bid_algorithm(amount, auctionId);\r\n        userfunds[msg.sender] -= amount;\r\n    }\r\n\r\n    function settle(bytes32 auctionId) external onlyNotPaused {\r\n        require(auctions[auctionId].deadline <= block.timestamp && auctions[auctionId].finished == false, \"Auction deadline is not accomplished.\");\r\n        auctions[auctionId].finished = true;\r\n        auctions[auctionId].winner = auctions[auctionId].highest_bidder;\r\n    }\r\n    \r\n    function deposit() external payable onlyNotPaused {\r\n        userfunds[msg.sender] += msg.value;\r\n    }\r\n    \r\n    function withdraw() external onlyNotPaused {\r\n        require(userfunds[msg.sender] > 0, \"You don't have saved funds.\");\r\n        uint amount = userfunds[msg.sender];\r\n        userfunds[msg.sender] = 0;\r\n        payable(msg.sender).transfer(amount);\r\n    }\r\n\r\n    function see_winner(bytes32 auctionId) view external returns (address) {\r\n        return auctions[auctionId].winner;\r\n    }\r\n\r\n    function see_highest_bidder(bytes32 auctionId) view external returns(address) {\r\n        return auctions[auctionId].highest_bidder;\r\n    }\r\n\r\n    function getAuctionId(string calldata name, string calldata imgUrl, string calldata description, uint256 floor, uint256 deadline) external pure returns(bytes32) {\r\n        bytes32 auctionIdGenerator = keccak256(abi.encodePacked(name, imgUrl, description, floor, deadline));\r\n        return auctionIdGenerator;\r\n    }\r\n\r\n    modifier onlyNotPaused() {\r\n        require(contract_paused == false, \"Contract paused!\");\r\n        _;\r\n    }\r\n\r\n\r\n}",
  "sourcePath": "C:\\Users\\Pavon\\Desktop\\shacke4\\contracts\\debay.sol",
  "compiler": {
    "name": "solc",
    "version": "0.8.11+commit.d7f03943.Emscripten.clang"
  },
  "schemaVersion": "3.4.4",
  "updatedAt": "2022-04-03T15:28:02.313Z",
  "networkType": "ethereum",
  "devdoc": {
    "kind": "dev",
    "methods": {},
    "version": 1
  },
  "userdoc": {
    "kind": "user",
    "methods": {},
    "version": 1
  }
}