{
  "contractName": "highway",
  "abi": [
    {
      "inputs": [
        {
          "internalType": "contract RPDToken",
          "name": "token_address",
          "type": "address"
        }
      ],
      "stateMutability": "nonpayable",
      "type": "constructor"
    },
    {
      "anonymous": false,
      "inputs": [
        {
          "indexed": true,
          "internalType": "address",
          "name": "previousOwner",
          "type": "address"
        },
        {
          "indexed": true,
          "internalType": "address",
          "name": "newOwner",
          "type": "address"
        }
      ],
      "name": "OwnershipTransferred",
      "type": "event"
    },
    {
      "anonymous": false,
      "inputs": [
        {
          "indexed": false,
          "internalType": "address",
          "name": "account",
          "type": "address"
        }
      ],
      "name": "Paused",
      "type": "event"
    },
    {
      "anonymous": false,
      "inputs": [
        {
          "indexed": false,
          "internalType": "address",
          "name": "account",
          "type": "address"
        }
      ],
      "name": "Unpaused",
      "type": "event"
    },
    {
      "inputs": [
        {
          "internalType": "address",
          "name": "",
          "type": "address"
        }
      ],
      "name": "in_use",
      "outputs": [
        {
          "components": [
            {
              "internalType": "string",
              "name": "name",
              "type": "string"
            },
            {
              "internalType": "string",
              "name": "location",
              "type": "string"
            }
          ],
          "internalType": "struct highway.RAMP",
          "name": "entry",
          "type": "tuple"
        },
        {
          "components": [
            {
              "internalType": "string",
              "name": "name",
              "type": "string"
            },
            {
              "internalType": "string",
              "name": "location",
              "type": "string"
            }
          ],
          "internalType": "struct highway.RAMP",
          "name": "exit",
          "type": "tuple"
        },
        {
          "internalType": "uint256",
          "name": "price",
          "type": "uint256"
        }
      ],
      "stateMutability": "view",
      "type": "function"
    },
    {
      "inputs": [],
      "name": "owner",
      "outputs": [
        {
          "internalType": "address",
          "name": "",
          "type": "address"
        }
      ],
      "stateMutability": "view",
      "type": "function"
    },
    {
      "inputs": [],
      "name": "paused",
      "outputs": [
        {
          "internalType": "bool",
          "name": "",
          "type": "bool"
        }
      ],
      "stateMutability": "view",
      "type": "function"
    },
    {
      "inputs": [
        {
          "internalType": "string",
          "name": "",
          "type": "string"
        }
      ],
      "name": "ramps",
      "outputs": [
        {
          "internalType": "string",
          "name": "name",
          "type": "string"
        },
        {
          "internalType": "string",
          "name": "location",
          "type": "string"
        }
      ],
      "stateMutability": "view",
      "type": "function"
    },
    {
      "inputs": [],
      "name": "renounceOwnership",
      "outputs": [],
      "stateMutability": "nonpayable",
      "type": "function"
    },
    {
      "inputs": [
        {
          "internalType": "string",
          "name": "",
          "type": "string"
        }
      ],
      "name": "routes",
      "outputs": [
        {
          "components": [
            {
              "internalType": "string",
              "name": "name",
              "type": "string"
            },
            {
              "internalType": "string",
              "name": "location",
              "type": "string"
            }
          ],
          "internalType": "struct highway.RAMP",
          "name": "entry",
          "type": "tuple"
        },
        {
          "components": [
            {
              "internalType": "string",
              "name": "name",
              "type": "string"
            },
            {
              "internalType": "string",
              "name": "location",
              "type": "string"
            }
          ],
          "internalType": "struct highway.RAMP",
          "name": "exit",
          "type": "tuple"
        },
        {
          "internalType": "uint256",
          "name": "price",
          "type": "uint256"
        }
      ],
      "stateMutability": "view",
      "type": "function"
    },
    {
      "inputs": [
        {
          "internalType": "address",
          "name": "newOwner",
          "type": "address"
        }
      ],
      "name": "transferOwnership",
      "outputs": [],
      "stateMutability": "nonpayable",
      "type": "function"
    },
    {
      "inputs": [],
      "name": "pause_contract",
      "outputs": [],
      "stateMutability": "nonpayable",
      "type": "function"
    },
    {
      "inputs": [
        {
          "internalType": "string",
          "name": "name",
          "type": "string"
        },
        {
          "internalType": "string",
          "name": "entry",
          "type": "string"
        },
        {
          "internalType": "string",
          "name": "exit",
          "type": "string"
        },
        {
          "internalType": "uint256",
          "name": "price",
          "type": "uint256"
        }
      ],
      "name": "create_route",
      "outputs": [],
      "stateMutability": "nonpayable",
      "type": "function"
    },
    {
      "inputs": [
        {
          "internalType": "string",
          "name": "name",
          "type": "string"
        },
        {
          "internalType": "string",
          "name": "location",
          "type": "string"
        }
      ],
      "name": "create_ramp",
      "outputs": [],
      "stateMutability": "nonpayable",
      "type": "function"
    },
    {
      "inputs": [
        {
          "internalType": "string",
          "name": "route",
          "type": "string"
        }
      ],
      "name": "use_route",
      "outputs": [],
      "stateMutability": "nonpayable",
      "type": "function"
    },
    {
      "inputs": [],
      "name": "check_allowance",
      "outputs": [
        {
          "internalType": "bool",
          "name": "",
          "type": "bool"
        }
      ],
      "stateMutability": "view",
      "type": "function"
    },
    {
      "inputs": [],
      "name": "pay_route",
      "outputs": [],
      "stateMutability": "nonpayable",
      "type": "function"
    }
  ],
  "bytecode": "0x60806040523480156200001157600080fd5b5060405162002e6c38038062002e6c833981810160405281019062000037919062000203565b620000576200004b620000b960201b60201c565b620000c160201b60201c565b60008060146101000a81548160ff02191690831515021790555080600160006101000a81548173ffffffffffffffffffffffffffffffffffffffff021916908373ffffffffffffffffffffffffffffffffffffffff1602179055505062000235565b600033905090565b60008060009054906101000a900473ffffffffffffffffffffffffffffffffffffffff169050816000806101000a81548173ffffffffffffffffffffffffffffffffffffffff021916908373ffffffffffffffffffffffffffffffffffffffff1602179055508173ffffffffffffffffffffffffffffffffffffffff168173ffffffffffffffffffffffffffffffffffffffff167f8be0079c531659141344cd1fd0a4f28419497f9722a3daafe3b4186f6b6457e060405160405180910390a35050565b600080fd5b600073ffffffffffffffffffffffffffffffffffffffff82169050919050565b6000620001b7826200018a565b9050919050565b6000620001cb82620001aa565b9050919050565b620001dd81620001be565b8114620001e957600080fd5b50565b600081519050620001fd81620001d2565b92915050565b6000602082840312156200021c576200021b62000185565b5b60006200022c84828501620001ec565b91505092915050565b612c2780620002456000396000f3fe608060405234801561001057600080fd5b50600436106100cf5760003560e01c8063715018a61161008c578063cffbffb511610066578063cffbffb5146101b5578063ed8b56c0146101e7578063edc63d3e14610203578063f2fde38b14610235576100cf565b8063715018a61461015c5780637d0ae0c7146101665780638da5cb5b14610197576100cf565b806318d00a1a146100d45780634ddd15d5146100de5780634ef5e38a146100fc57806356071eb91461010657806356ada059146101225780635c975abb1461013e575b600080fd5b6100dc610251565b005b6100e66105b1565b6040516100f39190611faf565b60405180910390f35b6101046107db565b005b610120600480360381019061011b9190612124565b61087b565b005b61013c600480360381019061013791906121a3565b610f83565b005b610146611284565b6040516101539190611faf565b60405180910390f35b61016461129a565b005b610180600480360381019061017b9190612124565b611322565b60405161018e9291906122e6565b60405180910390f35b61019f61146c565b6040516101ac919061235e565b60405180910390f35b6101cf60048036038101906101ca9190612124565b611495565b6040516101de93929190612416565b60405180910390f35b61020160048036038101906101fc919061245b565b611731565b005b61021d600480360381019061021891906124ff565b6118d6565b60405161022c93929190612416565b60405180910390f35b61024f600480360381019061024a91906124ff565b611b5c565b005b600073ffffffffffffffffffffffffffffffffffffffff16600160009054906101000a900473ffffffffffffffffffffffffffffffffffffffff1673ffffffffffffffffffffffffffffffffffffffff1614156102e3576040517f08c379a00000000000000000000000000000000000000000000000000000000081526004016102da90612578565b60405180910390fd5b6102eb611284565b1561032b576040517f08c379a0000000000000000000000000000000000000000000000000000000008152600401610322906125e4565b60405180910390fd5b6000600360003373ffffffffffffffffffffffffffffffffffffffff1673ffffffffffffffffffffffffffffffffffffffff168152602001908152602001600020600401549050600081116103b5576040517f08c379a00000000000000000000000000000000000000000000000000000000081526004016103ac90612650565b60405180910390fd5b600160009054906101000a900473ffffffffffffffffffffffffffffffffffffffff1673ffffffffffffffffffffffffffffffffffffffff166323b872dd3330846040518463ffffffff1660e01b815260040161041493929190612670565b6020604051808303816000875af1158015610433573d6000803e3d6000fd5b505050506040513d601f19601f8201168201806040525081019061045791906126d3565b506040518060600160405280604051806040016040528060405180602001604052806000815250815260200160405180602001604052806000815250815250815260200160405180604001604052806040518060200160405280600081525081526020016040518060200160405280600081525081525081526020016000815250600360003373ffffffffffffffffffffffffffffffffffffffff1673ffffffffffffffffffffffffffffffffffffffff168152602001908152602001600020600082015181600001600082015181600001908051906020019061053c929190611e64565b506020820151816001019080519060200190610559929190611e64565b5050506020820151816002016000820151816000019080519060200190610581929190611e64565b50602082015181600101908051906020019061059e929190611e64565b5050506040820151816004015590505050565b60008073ffffffffffffffffffffffffffffffffffffffff16600160009054906101000a900473ffffffffffffffffffffffffffffffffffffffff1673ffffffffffffffffffffffffffffffffffffffff161415610644576040517f08c379a000000000000000000000000000000000000000000000000000000000815260040161063b90612578565b60405180910390fd5b61064c611284565b1561068c576040517f08c379a0000000000000000000000000000000000000000000000000000000008152600401610683906125e4565b60405180910390fd5b600a600160009054906101000a900473ffffffffffffffffffffffffffffffffffffffff1673ffffffffffffffffffffffffffffffffffffffff166370a08231336040518263ffffffff1660e01b81526004016106e9919061235e565b602060405180830381865afa158015610706573d6000803e3d6000fd5b505050506040513d601f19601f8201168201806040525081019061072a9190612715565b101580156107d65750600a600160009054906101000a900473ffffffffffffffffffffffffffffffffffffffff1673ffffffffffffffffffffffffffffffffffffffff1663dd62ed3e33306040518363ffffffff1660e01b8152600401610792929190612742565b602060405180830381865afa1580156107af573d6000803e3d6000fd5b505050506040513d601f19601f820116820180604052508101906107d39190612715565b10155b905090565b6107e3611c54565b73ffffffffffffffffffffffffffffffffffffffff1661080161146c565b73ffffffffffffffffffffffffffffffffffffffff1614610857576040517f08c379a000000000000000000000000000000000000000000000000000000000815260040161084e906127b7565b60405180910390fd5b61085f611284565b6108705761086b611c5c565b610879565b610878611cff565b5b565b600073ffffffffffffffffffffffffffffffffffffffff16600160009054906101000a900473ffffffffffffffffffffffffffffffffffffffff1673ffffffffffffffffffffffffffffffffffffffff16141561090d576040517f08c379a000000000000000000000000000000000000000000000000000000000815260040161090490612578565b60405180910390fd5b610915611284565b15610955576040517f08c379a000000000000000000000000000000000000000000000000000000000815260040161094c906125e4565b60405180910390fd5b61095d6105b1565b61099c576040517f08c379a000000000000000000000000000000000000000000000000000000000815260040161099390612849565b60405180910390fd5b60006004826040516109ae91906128a5565b908152602001604051809103902060000160000180546109cd906128eb565b80601f01602080910402602001604051908101604052809291908181526020018280546109f9906128eb565b8015610a465780601f10610a1b57610100808354040283529160200191610a46565b820191906000526020600020905b815481529060010190602001808311610a2957829003601f168201915b505050505090506000600483604051610a5f91906128a5565b90815260200160405180910390206002016000018054610a7e906128eb565b80601f0160208091040260200160405190810160405280929190818152602001828054610aaa906128eb565b8015610af75780601f10610acc57610100808354040283529160200191610af7565b820191906000526020600020905b815481529060010190602001808311610ada57829003601f168201915b5050505050905060008251118015610b10575060008151115b610b4f576040517f08c379a0000000000000000000000000000000000000000000000000000000008152600401610b4690612969565b60405180910390fd5b6000600360003373ffffffffffffffffffffffffffffffffffffffff1673ffffffffffffffffffffffffffffffffffffffff1681526020019081526020016000206004015414610bd4576040517f08c379a0000000000000000000000000000000000000000000000000000000008152600401610bcb906129fb565b60405180910390fd5b6040518060600160405280600284604051610bef91906128a5565b9081526020016040518091039020604051806040016040529081600082018054610c18906128eb565b80601f0160208091040260200160405190810160405280929190818152602001828054610c44906128eb565b8015610c915780601f10610c6657610100808354040283529160200191610c91565b820191906000526020600020905b815481529060010190602001808311610c7457829003601f168201915b50505050508152602001600182018054610caa906128eb565b80601f0160208091040260200160405190810160405280929190818152602001828054610cd6906128eb565b8015610d235780601f10610cf857610100808354040283529160200191610d23565b820191906000526020600020905b815481529060010190602001808311610d0657829003601f168201915b5050505050815250508152602001600283604051610d4191906128a5565b9081526020016040518091039020604051806040016040529081600082018054610d6a906128eb565b80601f0160208091040260200160405190810160405280929190818152602001828054610d96906128eb565b8015610de35780601f10610db857610100808354040283529160200191610de3565b820191906000526020600020905b815481529060010190602001808311610dc657829003601f168201915b50505050508152602001600182018054610dfc906128eb565b80601f0160208091040260200160405190810160405280929190818152602001828054610e28906128eb565b8015610e755780601f10610e4a57610100808354040283529160200191610e75565b820191906000526020600020905b815481529060010190602001808311610e5857829003601f168201915b5050505050815250508152602001600485604051610e9391906128a5565b908152602001604051809103902060040154815250600360003373ffffffffffffffffffffffffffffffffffffffff1673ffffffffffffffffffffffffffffffffffffffff1681526020019081526020016000206000820151816000016000820151816000019080519060200190610f0c929190611e64565b506020820151816001019080519060200190610f29929190611e64565b5050506020820151816002016000820151816000019080519060200190610f51929190611e64565b506020820151816001019080519060200190610f6e929190611e64565b50505060408201518160040155905050505050565b610f8b611c54565b73ffffffffffffffffffffffffffffffffffffffff16610fa961146c565b73ffffffffffffffffffffffffffffffffffffffff1614610fff576040517f08c379a0000000000000000000000000000000000000000000000000000000008152600401610ff6906127b7565b60405180910390fd5b611007611284565b15611047576040517f08c379a000000000000000000000000000000000000000000000000000000000815260040161103e906125e4565b60405180910390fd5b600060048560405161105991906128a5565b908152602001604051809103902060040154146110ab576040517f08c379a00000000000000000000000000000000000000000000000000000000081526004016110a290612a67565b60405180910390fd5b60006002846040516110bd91906128a5565b908152602001604051809103902060000180546110d9906128eb565b9050118015611115575060006002846040516110f591906128a5565b90815260200160405180910390206000018054611111906128eb565b9050115b611154576040517f08c379a000000000000000000000000000000000000000000000000000000000815260040161114b90612969565b60405180910390fd5b60028360405161116491906128a5565b908152602001604051809103902060048560405161118291906128a5565b908152602001604051809103902060000160008201816000019080546111a7906128eb565b6111b2929190611eea565b5060018201816001019080546111c7906128eb565b6111d2929190611eea565b509050506002826040516111e691906128a5565b908152602001604051809103902060048560405161120491906128a5565b90815260200160405180910390206002016000820181600001908054611229906128eb565b611234929190611eea565b506001820181600101908054611249906128eb565b611254929190611eea565b509050508060048560405161126991906128a5565b90815260200160405180910390206004018190555050505050565b60008060149054906101000a900460ff16905090565b6112a2611c54565b73ffffffffffffffffffffffffffffffffffffffff166112c061146c565b73ffffffffffffffffffffffffffffffffffffffff1614611316576040517f08c379a000000000000000000000000000000000000000000000000000000000815260040161130d906127b7565b60405180910390fd5b6113206000611da0565b565b60028180516020810182018051848252602083016020850120818352809550505050505060009150905080600001805461135b906128eb565b80601f0160208091040260200160405190810160405280929190818152602001828054611387906128eb565b80156113d45780601f106113a9576101008083540402835291602001916113d4565b820191906000526020600020905b8154815290600101906020018083116113b757829003601f168201915b5050505050908060010180546113e9906128eb565b80601f0160208091040260200160405190810160405280929190818152602001828054611415906128eb565b80156114625780601f1061143757610100808354040283529160200191611462565b820191906000526020600020905b81548152906001019060200180831161144557829003601f168201915b5050505050905082565b60008060009054906101000a900473ffffffffffffffffffffffffffffffffffffffff16905090565b600481805160208101820180518482526020830160208501208183528095505050505050600091509050806000016040518060400160405290816000820180546114de906128eb565b80601f016020809104026020016040519081016040528092919081815260200182805461150a906128eb565b80156115575780601f1061152c57610100808354040283529160200191611557565b820191906000526020600020905b81548152906001019060200180831161153a57829003601f168201915b50505050508152602001600182018054611570906128eb565b80601f016020809104026020016040519081016040528092919081815260200182805461159c906128eb565b80156115e95780601f106115be576101008083540402835291602001916115e9565b820191906000526020600020905b8154815290600101906020018083116115cc57829003601f168201915b5050505050815250509080600201604051806040016040529081600082018054611612906128eb565b80601f016020809104026020016040519081016040528092919081815260200182805461163e906128eb565b801561168b5780601f106116605761010080835404028352916020019161168b565b820191906000526020600020905b81548152906001019060200180831161166e57829003601f168201915b505050505081526020016001820180546116a4906128eb565b80601f01602080910402602001604051908101604052809291908181526020018280546116d0906128eb565b801561171d5780601f106116f25761010080835404028352916020019161171d565b820191906000526020600020905b81548152906001019060200180831161170057829003601f168201915b505050505081525050908060040154905083565b611739611c54565b73ffffffffffffffffffffffffffffffffffffffff1661175761146c565b73ffffffffffffffffffffffffffffffffffffffff16146117ad576040517f08c379a00000000000000000000000000000000000000000000000000000000081526004016117a4906127b7565b60405180910390fd5b6117b5611284565b156117f5576040517f08c379a00000000000000000000000000000000000000000000000000000000081526004016117ec906125e4565b60405180910390fd5b600060028360405161180791906128a5565b90815260200160405180910390206000018054611823906128eb565b90501115611866576040517f08c379a000000000000000000000000000000000000000000000000000000000815260040161185d90612ad3565b60405180910390fd5b8160028360405161187791906128a5565b9081526020016040518091039020600001908051906020019061189b929190611e64565b50806002836040516118ad91906128a5565b908152602001604051809103902060010190805190602001906118d1929190611e64565b505050565b600360205280600052604060002060009150905080600001604051806040016040529081600082018054611909906128eb565b80601f0160208091040260200160405190810160405280929190818152602001828054611935906128eb565b80156119825780601f1061195757610100808354040283529160200191611982565b820191906000526020600020905b81548152906001019060200180831161196557829003601f168201915b5050505050815260200160018201805461199b906128eb565b80601f01602080910402602001604051908101604052809291908181526020018280546119c7906128eb565b8015611a145780601f106119e957610100808354040283529160200191611a14565b820191906000526020600020905b8154815290600101906020018083116119f757829003601f168201915b5050505050815250509080600201604051806040016040529081600082018054611a3d906128eb565b80601f0160208091040260200160405190810160405280929190818152602001828054611a69906128eb565b8015611ab65780601f10611a8b57610100808354040283529160200191611ab6565b820191906000526020600020905b815481529060010190602001808311611a9957829003601f168201915b50505050508152602001600182018054611acf906128eb565b80601f0160208091040260200160405190810160405280929190818152602001828054611afb906128eb565b8015611b485780601f10611b1d57610100808354040283529160200191611b48565b820191906000526020600020905b815481529060010190602001808311611b2b57829003601f168201915b505050505081525050908060040154905083565b611b64611c54565b73ffffffffffffffffffffffffffffffffffffffff16611b8261146c565b73ffffffffffffffffffffffffffffffffffffffff1614611bd8576040517f08c379a0000000000000000000000000000000000000000000000000000000008152600401611bcf906127b7565b60405180910390fd5b600073ffffffffffffffffffffffffffffffffffffffff168173ffffffffffffffffffffffffffffffffffffffff161415611c48576040517f08c379a0000000000000000000000000000000000000000000000000000000008152600401611c3f90612b65565b60405180910390fd5b611c5181611da0565b50565b600033905090565b611c64611284565b15611ca4576040517f08c379a0000000000000000000000000000000000000000000000000000000008152600401611c9b906125e4565b60405180910390fd5b6001600060146101000a81548160ff0219169083151502179055507f62e78cea01bee320cd4e420270b5ea74000d11b0c9f74754ebdbfc544b05a258611ce8611c54565b604051611cf5919061235e565b60405180910390a1565b611d07611284565b611d46576040517f08c379a0000000000000000000000000000000000000000000000000000000008152600401611d3d90612bd1565b60405180910390fd5b60008060146101000a81548160ff0219169083151502179055507f5db9ee0a495bf2e6ff9c91a7834c1ba4fdd244a5e8aa4e537bd38aeae4b073aa611d89611c54565b604051611d96919061235e565b60405180910390a1565b60008060009054906101000a900473ffffffffffffffffffffffffffffffffffffffff169050816000806101000a81548173ffffffffffffffffffffffffffffffffffffffff021916908373ffffffffffffffffffffffffffffffffffffffff1602179055508173ffffffffffffffffffffffffffffffffffffffff168173ffffffffffffffffffffffffffffffffffffffff167f8be0079c531659141344cd1fd0a4f28419497f9722a3daafe3b4186f6b6457e060405160405180910390a35050565b828054611e70906128eb565b90600052602060002090601f016020900481019282611e925760008555611ed9565b82601f10611eab57805160ff1916838001178555611ed9565b82800160010185558215611ed9579182015b82811115611ed8578251825591602001919060010190611ebd565b5b509050611ee69190611f77565b5090565b828054611ef6906128eb565b90600052602060002090601f016020900481019282611f185760008555611f66565b82601f10611f295780548555611f66565b82800160010185558215611f6657600052602060002091601f016020900482015b82811115611f65578254825591600101919060010190611f4a565b5b509050611f739190611f77565b5090565b5b80821115611f90576000816000905550600101611f78565b5090565b60008115159050919050565b611fa981611f94565b82525050565b6000602082019050611fc46000830184611fa0565b92915050565b6000604051905090565b600080fd5b600080fd5b600080fd5b600080fd5b6000601f19601f8301169050919050565b7f4e487b7100000000000000000000000000000000000000000000000000000000600052604160045260246000fd5b61203182611fe8565b810181811067ffffffffffffffff821117156120505761204f611ff9565b5b80604052505050565b6000612063611fca565b905061206f8282612028565b919050565b600067ffffffffffffffff82111561208f5761208e611ff9565b5b61209882611fe8565b9050602081019050919050565b82818337600083830152505050565b60006120c76120c284612074565b612059565b9050828152602081018484840111156120e3576120e2611fe3565b5b6120ee8482856120a5565b509392505050565b600082601f83011261210b5761210a611fde565b5b813561211b8482602086016120b4565b91505092915050565b60006020828403121561213a57612139611fd4565b5b600082013567ffffffffffffffff81111561215857612157611fd9565b5b612164848285016120f6565b91505092915050565b6000819050919050565b6121808161216d565b811461218b57600080fd5b50565b60008135905061219d81612177565b92915050565b600080600080608085870312156121bd576121bc611fd4565b5b600085013567ffffffffffffffff8111156121db576121da611fd9565b5b6121e7878288016120f6565b945050602085013567ffffffffffffffff81111561220857612207611fd9565b5b612214878288016120f6565b935050604085013567ffffffffffffffff81111561223557612234611fd9565b5b612241878288016120f6565b92505060606122528782880161218e565b91505092959194509250565b600081519050919050565b600082825260208201905092915050565b60005b8381101561229857808201518184015260208101905061227d565b838111156122a7576000848401525b50505050565b60006122b88261225e565b6122c28185612269565b93506122d281856020860161227a565b6122db81611fe8565b840191505092915050565b6000604082019050818103600083015261230081856122ad565b9050818103602083015261231481846122ad565b90509392505050565b600073ffffffffffffffffffffffffffffffffffffffff82169050919050565b60006123488261231d565b9050919050565b6123588161233d565b82525050565b6000602082019050612373600083018461234f565b92915050565b600082825260208201905092915050565b60006123958261225e565b61239f8185612379565b93506123af81856020860161227a565b6123b881611fe8565b840191505092915050565b600060408301600083015184820360008601526123e0828261238a565b915050602083015184820360208601526123fa828261238a565b9150508091505092915050565b6124108161216d565b82525050565b6000606082019050818103600083015261243081866123c3565b9050818103602083015261244481856123c3565b90506124536040830184612407565b949350505050565b6000806040838503121561247257612471611fd4565b5b600083013567ffffffffffffffff8111156124905761248f611fd9565b5b61249c858286016120f6565b925050602083013567ffffffffffffffff8111156124bd576124bc611fd9565b5b6124c9858286016120f6565b9150509250929050565b6124dc8161233d565b81146124e757600080fd5b50565b6000813590506124f9816124d3565b92915050565b60006020828403121561251557612514611fd4565b5b6000612523848285016124ea565b91505092915050565b7f506c656173652073657420636f727265637420746f6b656e2061646472657373600082015250565b6000612562602083612269565b915061256d8261252c565b602082019050919050565b6000602082019050818103600083015261259181612555565b9050919050565b7f5061757361626c653a2070617573656400000000000000000000000000000000600082015250565b60006125ce601083612269565b91506125d982612598565b602082019050919050565b600060208201905081810360008301526125fd816125c1565b9050919050565b7f594f5520444f4e2754204841564520524f5554455320544f2050415900000000600082015250565b600061263a601c83612269565b915061264582612604565b602082019050919050565b600060208201905081810360008301526126698161262d565b9050919050565b6000606082019050612685600083018661234f565b612692602083018561234f565b61269f6040830184612407565b949350505050565b6126b081611f94565b81146126bb57600080fd5b50565b6000815190506126cd816126a7565b92915050565b6000602082840312156126e9576126e8611fd4565b5b60006126f7848285016126be565b91505092915050565b60008151905061270f81612177565b92915050565b60006020828403121561272b5761272a611fd4565b5b600061273984828501612700565b91505092915050565b6000604082019050612757600083018561234f565b612764602083018461234f565b9392505050565b7f4f776e61626c653a2063616c6c6572206973206e6f7420746865206f776e6572600082015250565b60006127a1602083612269565b91506127ac8261276b565b602082019050919050565b600060208201905081810360008301526127d081612794565b9050919050565b7f504c4541534520434845434b20594f55522042414c414e4345204f5220414c4c60008201527f4f57414e43452e00000000000000000000000000000000000000000000000000602082015250565b6000612833602783612269565b915061283e826127d7565b604082019050919050565b6000602082019050818103600083015261286281612826565b9050919050565b600081905092915050565b600061287f8261225e565b6128898185612869565b935061289981856020860161227a565b80840191505092915050565b60006128b18284612874565b915081905092915050565b7f4e487b7100000000000000000000000000000000000000000000000000000000600052602260045260246000fd5b6000600282049050600182168061290357607f821691505b60208210811415612917576129166128bc565b5b50919050565b7f52414d5020444f45534e27542045584953545300000000000000000000000000600082015250565b6000612953601383612269565b915061295e8261291d565b602082019050919050565b6000602082019050818103600083015261298281612946565b9050919050565b7f414c5245414459205553494e4720412052414d502c2046494e4953482049542060008201527f414e442050415920495420544f2055534520414e4f544845522e000000000000602082015250565b60006129e5603a83612269565b91506129f082612989565b604082019050919050565b60006020820190508181036000830152612a14816129d8565b9050919050565b7f526f75746520616c726561647920657869737421000000000000000000000000600082015250565b6000612a51601483612269565b9150612a5c82612a1b565b602082019050919050565b60006020820190508181036000830152612a8081612a44565b9050919050565b7f52414d5020414c52454144592045584953545300000000000000000000000000600082015250565b6000612abd601383612269565b9150612ac882612a87565b602082019050919050565b60006020820190508181036000830152612aec81612ab0565b9050919050565b7f4f776e61626c653a206e6577206f776e657220697320746865207a65726f206160008201527f6464726573730000000000000000000000000000000000000000000000000000602082015250565b6000612b4f602683612269565b9150612b5a82612af3565b604082019050919050565b60006020820190508181036000830152612b7e81612b42565b9050919050565b7f5061757361626c653a206e6f7420706175736564000000000000000000000000600082015250565b6000612bbb601483612269565b9150612bc682612b85565b602082019050919050565b60006020820190508181036000830152612bea81612bae565b905091905056fea26469706673582212201348220d612672ec8e44c75584ad4b341543f6f4eb98e1c56f9daf51ceac751264736f6c634300080b0033",
  "immutableReferences": {},
  "source": "// SPDX-License-Identifier: NONE\r\n\r\npragma solidity ^ 0.8.11;\r\n\r\nimport './rpd_interface.sol';\r\nimport './rpd_token.sol';\r\nimport \"@openzeppelin/contracts/access/Ownable.sol\";\r\nimport \"@openzeppelin/contracts/security/Pausable.sol\";\r\n\r\ncontract highway is IRapiDrive, Ownable, Pausable {\r\n\r\n    RPDToken TOKEN;\r\n\r\n    struct RAMP {\r\n        string name;\r\n        string location;\r\n    }\r\n    \r\n    struct ROUTE {\r\n        RAMP entry;\r\n        RAMP exit;\r\n        uint price;\r\n    }\r\n\r\n    mapping(string => RAMP) public ramps;\r\n    mapping(address => ROUTE) public in_use;\r\n    mapping(string => ROUTE) public routes;\r\n\r\n    constructor (RPDToken token_address) {\r\n        TOKEN = token_address;\r\n    }\r\n\r\n    function pause_contract() public onlyOwner {\r\n        paused() ? _unpause() : _pause() ;\r\n    }\r\n\r\n    function create_route(string memory name, string memory entry, string memory exit, uint price) public onlyOwner whenNotPaused {\r\n        require(routes[name].price == 0, \"Route already exist!\");\r\n        require(bytes(ramps[entry].name).length > 0 && bytes(ramps[entry].name).length > 0, \"RAMP DOESN'T EXISTS\");\r\n        routes[name].entry = ramps[entry];\r\n        routes[name].exit = ramps[exit];\r\n        routes[name].price = price;\r\n    }\r\n\r\n    function create_ramp(string memory name, string memory location) public onlyOwner whenNotPaused {\r\n        require(bytes(ramps[name].name).length <= 0, \"RAMP ALREADY EXISTS\");\r\n        ramps[name].name = name;\r\n        ramps[name].location = location;\r\n    }\r\n\r\n    function use_route(string memory route) public require_token whenNotPaused {\r\n        require(check_allowance(), 'PLEASE CHECK YOUR BALANCE OR ALLOWANCE.');\r\n        string memory on_ramp = routes[route].entry.name;\r\n        string memory off_ramp = routes[route].exit.name;\r\n        require(bytes(on_ramp).length > 0 && bytes(off_ramp).length > 0, \"RAMP DOESN'T EXISTS\");\r\n        require(in_use[msg.sender].price == 0, \"ALREADY USING A RAMP, FINISH IT AND PAY IT TO USE ANOTHER.\");\r\n        in_use[msg.sender] = ROUTE(ramps[on_ramp], ramps[off_ramp], routes[route].price);\r\n\r\n    }\r\n\r\n    function check_allowance() public view require_token whenNotPaused returns(bool)  {\r\n        return TOKEN.balanceOf(msg.sender) >= 10 && TOKEN.allowance(msg.sender, address(this)) >= 10;\r\n    }\r\n\r\n    function pay_route() external require_token whenNotPaused {\r\n        uint amount = in_use[msg.sender].price;\r\n        require(amount > 0, \"YOU DON'T HAVE ROUTES TO PAY\");\r\n        TOKEN.transferFrom(msg.sender, address(this), amount);\r\n        in_use[msg.sender] = ROUTE(RAMP('',''), RAMP('',''), 0);\r\n    }\r\n\r\n\r\n    modifier require_token() {\r\n        require(address(TOKEN) != address(0), 'Please set correct token address');\r\n        _;\r\n    }\r\n\r\n}",
  "sourcePath": "C:\\Users\\Pavon\\Desktop\\shacke4\\contracts\\rpd_highway.sol",
  "compiler": {
    "name": "solc",
    "version": "0.8.11+commit.d7f03943.Emscripten.clang"
  },
  "schemaVersion": "3.4.4",
  "updatedAt": "2022-04-25T15:53:14.107Z",
  "devdoc": {
    "kind": "dev",
    "methods": {
      "check_allowance()": {
        "returns": {
          "_0": "if the user has enough RPD TOKEN to use highway"
        }
      },
      "create_ramp(string,string)": {
        "params": {
          "location": "of the ramp which will be created",
          "name": "of the ramp which will be created"
        }
      },
      "create_route(string,string,string,uint256)": {
        "params": {
          "entry": "name of the ramp which will be paired",
          "exit": "name of the ramp which will be paired",
          "name": "of the route which will be created",
          "price": "of the route which will be created"
        }
      },
      "owner()": {
        "details": "Returns the address of the current owner."
      },
      "paused()": {
        "details": "Returns true if the contract is paused, and false otherwise."
      },
      "renounceOwnership()": {
        "details": "Leaves the contract without owner. It will not be possible to call `onlyOwner` functions anymore. Can only be called by the current owner. NOTE: Renouncing ownership will leave the contract without an owner, thereby removing any functionality that is only available to the owner."
      },
      "transferOwnership(address)": {
        "details": "Transfers ownership of the contract to a new account (`newOwner`). Can only be called by the current owner."
      }
    },
    "version": 1
  },
  "userdoc": {
    "kind": "user",
    "methods": {
      "check_allowance()": {
        "notice": "Check allowance from user"
      },
      "create_ramp(string,string)": {
        "notice": "Calculate the cost of a determinate ramp"
      },
      "create_route(string,string,string,uint256)": {
        "notice": "create a route between two ramps"
      },
      "pay_route()": {
        "notice": "function to pay route after calculate cost and check if the driver has 10 rpd tokens."
      }
    },
    "version": 1
  }
}