{
  "contractName": "highway",
  "abi": [
    {
      "inputs": [
        {
          "internalType": "contract RPDToken",
          "name": "token_address",
          "type": "address"
        }
      ],
      "stateMutability": "nonpayable",
      "type": "constructor"
    },
    {
      "anonymous": false,
      "inputs": [
        {
          "indexed": true,
          "internalType": "address",
          "name": "previousOwner",
          "type": "address"
        },
        {
          "indexed": true,
          "internalType": "address",
          "name": "newOwner",
          "type": "address"
        }
      ],
      "name": "OwnershipTransferred",
      "type": "event"
    },
    {
      "anonymous": false,
      "inputs": [
        {
          "indexed": false,
          "internalType": "address",
          "name": "account",
          "type": "address"
        }
      ],
      "name": "Paused",
      "type": "event"
    },
    {
      "anonymous": false,
      "inputs": [
        {
          "indexed": false,
          "internalType": "address",
          "name": "account",
          "type": "address"
        }
      ],
      "name": "Unpaused",
      "type": "event"
    },
    {
      "inputs": [],
      "name": "owner",
      "outputs": [
        {
          "internalType": "address",
          "name": "",
          "type": "address"
        }
      ],
      "stateMutability": "view",
      "type": "function"
    },
    {
      "inputs": [],
      "name": "paused",
      "outputs": [
        {
          "internalType": "bool",
          "name": "",
          "type": "bool"
        }
      ],
      "stateMutability": "view",
      "type": "function"
    },
    {
      "inputs": [],
      "name": "renounceOwnership",
      "outputs": [],
      "stateMutability": "nonpayable",
      "type": "function"
    },
    {
      "inputs": [
        {
          "internalType": "address",
          "name": "newOwner",
          "type": "address"
        }
      ],
      "name": "transferOwnership",
      "outputs": [],
      "stateMutability": "nonpayable",
      "type": "function"
    },
    {
      "inputs": [
        {
          "internalType": "string",
          "name": "name",
          "type": "string"
        },
        {
          "internalType": "string",
          "name": "location",
          "type": "string"
        },
        {
          "internalType": "uint256",
          "name": "price",
          "type": "uint256"
        }
      ],
      "name": "create_ramp",
      "outputs": [],
      "stateMutability": "nonpayable",
      "type": "function"
    },
    {
      "inputs": [
        {
          "internalType": "string",
          "name": "name",
          "type": "string"
        }
      ],
      "name": "use_ramp",
      "outputs": [],
      "stateMutability": "nonpayable",
      "type": "function"
    },
    {
      "inputs": [],
      "name": "check_allowance",
      "outputs": [
        {
          "internalType": "bool",
          "name": "",
          "type": "bool"
        }
      ],
      "stateMutability": "view",
      "type": "function"
    },
    {
      "inputs": [],
      "name": "pay_ramp",
      "outputs": [],
      "stateMutability": "nonpayable",
      "type": "function"
    }
  ],
  "bytecode": "0x60806040523480156200001157600080fd5b50604051620019f9380380620019f9833981810160405281019062000037919062000203565b620000576200004b620000b960201b60201c565b620000c160201b60201c565b60008060146101000a81548160ff02191690831515021790555080600160006101000a81548173ffffffffffffffffffffffffffffffffffffffff021916908373ffffffffffffffffffffffffffffffffffffffff1602179055505062000235565b600033905090565b60008060009054906101000a900473ffffffffffffffffffffffffffffffffffffffff169050816000806101000a81548173ffffffffffffffffffffffffffffffffffffffff021916908373ffffffffffffffffffffffffffffffffffffffff1602179055508173ffffffffffffffffffffffffffffffffffffffff168173ffffffffffffffffffffffffffffffffffffffff167f8be0079c531659141344cd1fd0a4f28419497f9722a3daafe3b4186f6b6457e060405160405180910390a35050565b600080fd5b600073ffffffffffffffffffffffffffffffffffffffff82169050919050565b6000620001b7826200018a565b9050919050565b6000620001cb82620001aa565b9050919050565b620001dd81620001be565b8114620001e957600080fd5b50565b600081519050620001fd81620001d2565b92915050565b6000602082840312156200021c576200021b62000185565b5b60006200022c84828501620001ec565b91505092915050565b6117b480620002456000396000f3fe608060405234801561001057600080fd5b50600436106100885760003560e01c80638da5cb5b1161005b5780638da5cb5b146100ef578063b1263b7f1461010d578063cd5a394214610129578063f2fde38b1461013357610088565b80634ddd15d51461008d5780635c975abb146100ab578063663868aa146100c9578063715018a6146100e5575b600080fd5b61009561014f565b6040516100a29190610e6b565b60405180910390f35b6100b3610379565b6040516100c09190610e6b565b60405180910390f35b6100e360048036038101906100de9190610fe0565b61038f565b005b6100ed61065e565b005b6100f76106e6565b604051610104919061106a565b60405180910390f35b610127600480360381019061012291906110bb565b61070f565b005b6101316108db565b005b61014d60048036038101906101489190611172565b610b5c565b005b60008073ffffffffffffffffffffffffffffffffffffffff16600160009054906101000a900473ffffffffffffffffffffffffffffffffffffffff1673ffffffffffffffffffffffffffffffffffffffff1614156101e2576040517f08c379a00000000000000000000000000000000000000000000000000000000081526004016101d9906111fc565b60405180910390fd5b6101ea610379565b1561022a576040517f08c379a000000000000000000000000000000000000000000000000000000000815260040161022190611268565b60405180910390fd5b600a600160009054906101000a900473ffffffffffffffffffffffffffffffffffffffff1673ffffffffffffffffffffffffffffffffffffffff166370a08231336040518263ffffffff1660e01b8152600401610287919061106a565b602060405180830381865afa1580156102a4573d6000803e3d6000fd5b505050506040513d601f19601f820116820180604052508101906102c8919061129d565b101580156103745750600a600160009054906101000a900473ffffffffffffffffffffffffffffffffffffffff1673ffffffffffffffffffffffffffffffffffffffff1663dd62ed3e33306040518363ffffffff1660e01b81526004016103309291906112ca565b602060405180830381865afa15801561034d573d6000803e3d6000fd5b505050506040513d601f19601f82011682018060405250810190610371919061129d565b10155b905090565b60008060149054906101000a900460ff16905090565b600073ffffffffffffffffffffffffffffffffffffffff16600160009054906101000a900473ffffffffffffffffffffffffffffffffffffffff1673ffffffffffffffffffffffffffffffffffffffff161415610421576040517f08c379a0000000000000000000000000000000000000000000000000000000008152600401610418906111fc565b60405180910390fd5b610429610379565b15610469576040517f08c379a000000000000000000000000000000000000000000000000000000000815260040161046090611268565b60405180910390fd5b61047161014f565b6104b0576040517f08c379a00000000000000000000000000000000000000000000000000000000081526004016104a790611365565b60405180910390fd5b60006003826040516104c291906113ff565b908152602001604051809103902060000180546104de90611445565b905011610520576040517f08c379a0000000000000000000000000000000000000000000000000000000008152600401610517906114c3565b60405180910390fd5b6000600260003373ffffffffffffffffffffffffffffffffffffffff1673ffffffffffffffffffffffffffffffffffffffff168152602001908152602001600020600001805461056f90611445565b9050146105b1576040517f08c379a00000000000000000000000000000000000000000000000000000000081526004016105a890611555565b60405180910390fd5b6003816040516105c191906113ff565b9081526020016040518091039020600260003373ffffffffffffffffffffffffffffffffffffffff1673ffffffffffffffffffffffffffffffffffffffff168152602001908152602001600020600082018160000190805461062290611445565b61062d929190610d20565b50600182018160010190805461064290611445565b61064d929190610d20565b506002820154816002015590505050565b610666610c54565b73ffffffffffffffffffffffffffffffffffffffff166106846106e6565b73ffffffffffffffffffffffffffffffffffffffff16146106da576040517f08c379a00000000000000000000000000000000000000000000000000000000081526004016106d1906115c1565b60405180910390fd5b6106e46000610c5c565b565b60008060009054906101000a900473ffffffffffffffffffffffffffffffffffffffff16905090565b610717610c54565b73ffffffffffffffffffffffffffffffffffffffff166107356106e6565b73ffffffffffffffffffffffffffffffffffffffff161461078b576040517f08c379a0000000000000000000000000000000000000000000000000000000008152600401610782906115c1565b60405180910390fd5b610793610379565b156107d3576040517f08c379a00000000000000000000000000000000000000000000000000000000081526004016107ca90611268565b60405180910390fd5b60006003846040516107e591906113ff565b9081526020016040518091039020600001805461080190611445565b90501115610844576040517f08c379a000000000000000000000000000000000000000000000000000000000815260040161083b9061162d565b60405180910390fd5b8260038460405161085591906113ff565b90815260200160405180910390206000019080519060200190610879929190610dad565b508160038460405161088b91906113ff565b908152602001604051809103902060010190805190602001906108af929190610dad565b50806003846040516108c191906113ff565b908152602001604051809103902060020181905550505050565b600073ffffffffffffffffffffffffffffffffffffffff16600160009054906101000a900473ffffffffffffffffffffffffffffffffffffffff1673ffffffffffffffffffffffffffffffffffffffff16141561096d576040517f08c379a0000000000000000000000000000000000000000000000000000000008152600401610964906111fc565b60405180910390fd5b610975610379565b156109b5576040517f08c379a00000000000000000000000000000000000000000000000000000000081526004016109ac90611268565b60405180910390fd5b600160009054906101000a900473ffffffffffffffffffffffffffffffffffffffff1673ffffffffffffffffffffffffffffffffffffffff166323b872dd3330600260003373ffffffffffffffffffffffffffffffffffffffff1673ffffffffffffffffffffffffffffffffffffffff168152602001908152602001600020600201546040518463ffffffff1660e01b8152600401610a569392919061165c565b6020604051808303816000875af1158015610a75573d6000803e3d6000fd5b505050506040513d601f19601f82011682018060405250810190610a9991906116bf565b5060405180606001604052806040518060200160405280600081525081526020016040518060200160405280600081525081526020016000815250600260003373ffffffffffffffffffffffffffffffffffffffff1673ffffffffffffffffffffffffffffffffffffffff1681526020019081526020016000206000820151816000019080519060200190610b2f929190610dad565b506020820151816001019080519060200190610b4c929190610dad565b5060408201518160020155905050565b610b64610c54565b73ffffffffffffffffffffffffffffffffffffffff16610b826106e6565b73ffffffffffffffffffffffffffffffffffffffff1614610bd8576040517f08c379a0000000000000000000000000000000000000000000000000000000008152600401610bcf906115c1565b60405180910390fd5b600073ffffffffffffffffffffffffffffffffffffffff168173ffffffffffffffffffffffffffffffffffffffff161415610c48576040517f08c379a0000000000000000000000000000000000000000000000000000000008152600401610c3f9061175e565b60405180910390fd5b610c5181610c5c565b50565b600033905090565b60008060009054906101000a900473ffffffffffffffffffffffffffffffffffffffff169050816000806101000a81548173ffffffffffffffffffffffffffffffffffffffff021916908373ffffffffffffffffffffffffffffffffffffffff1602179055508173ffffffffffffffffffffffffffffffffffffffff168173ffffffffffffffffffffffffffffffffffffffff167f8be0079c531659141344cd1fd0a4f28419497f9722a3daafe3b4186f6b6457e060405160405180910390a35050565b828054610d2c90611445565b90600052602060002090601f016020900481019282610d4e5760008555610d9c565b82601f10610d5f5780548555610d9c565b82800160010185558215610d9c57600052602060002091601f016020900482015b82811115610d9b578254825591600101919060010190610d80565b5b509050610da99190610e33565b5090565b828054610db990611445565b90600052602060002090601f016020900481019282610ddb5760008555610e22565b82601f10610df457805160ff1916838001178555610e22565b82800160010185558215610e22579182015b82811115610e21578251825591602001919060010190610e06565b5b509050610e2f9190610e33565b5090565b5b80821115610e4c576000816000905550600101610e34565b5090565b60008115159050919050565b610e6581610e50565b82525050565b6000602082019050610e806000830184610e5c565b92915050565b6000604051905090565b600080fd5b600080fd5b600080fd5b600080fd5b6000601f19601f8301169050919050565b7f4e487b7100000000000000000000000000000000000000000000000000000000600052604160045260246000fd5b610eed82610ea4565b810181811067ffffffffffffffff82111715610f0c57610f0b610eb5565b5b80604052505050565b6000610f1f610e86565b9050610f2b8282610ee4565b919050565b600067ffffffffffffffff821115610f4b57610f4a610eb5565b5b610f5482610ea4565b9050602081019050919050565b82818337600083830152505050565b6000610f83610f7e84610f30565b610f15565b905082815260208101848484011115610f9f57610f9e610e9f565b5b610faa848285610f61565b509392505050565b600082601f830112610fc757610fc6610e9a565b5b8135610fd7848260208601610f70565b91505092915050565b600060208284031215610ff657610ff5610e90565b5b600082013567ffffffffffffffff81111561101457611013610e95565b5b61102084828501610fb2565b91505092915050565b600073ffffffffffffffffffffffffffffffffffffffff82169050919050565b600061105482611029565b9050919050565b61106481611049565b82525050565b600060208201905061107f600083018461105b565b92915050565b6000819050919050565b61109881611085565b81146110a357600080fd5b50565b6000813590506110b58161108f565b92915050565b6000806000606084860312156110d4576110d3610e90565b5b600084013567ffffffffffffffff8111156110f2576110f1610e95565b5b6110fe86828701610fb2565b935050602084013567ffffffffffffffff81111561111f5761111e610e95565b5b61112b86828701610fb2565b925050604061113c868287016110a6565b9150509250925092565b61114f81611049565b811461115a57600080fd5b50565b60008135905061116c81611146565b92915050565b60006020828403121561118857611187610e90565b5b60006111968482850161115d565b91505092915050565b600082825260208201905092915050565b7f506c656173652073657420636f727265637420746f6b656e2061646472657373600082015250565b60006111e660208361119f565b91506111f1826111b0565b602082019050919050565b60006020820190508181036000830152611215816111d9565b9050919050565b7f5061757361626c653a2070617573656400000000000000000000000000000000600082015250565b600061125260108361119f565b915061125d8261121c565b602082019050919050565b6000602082019050818103600083015261128181611245565b9050919050565b6000815190506112978161108f565b92915050565b6000602082840312156112b3576112b2610e90565b5b60006112c184828501611288565b91505092915050565b60006040820190506112df600083018561105b565b6112ec602083018461105b565b9392505050565b7f504c4541534520434845434b20594f55522042414c414e4345204f5220414c4c60008201527f4f57414e43452e00000000000000000000000000000000000000000000000000602082015250565b600061134f60278361119f565b915061135a826112f3565b604082019050919050565b6000602082019050818103600083015261137e81611342565b9050919050565b600081519050919050565b600081905092915050565b60005b838110156113b957808201518184015260208101905061139e565b838111156113c8576000848401525b50505050565b60006113d982611385565b6113e38185611390565b93506113f381856020860161139b565b80840191505092915050565b600061140b82846113ce565b915081905092915050565b7f4e487b7100000000000000000000000000000000000000000000000000000000600052602260045260246000fd5b6000600282049050600182168061145d57607f821691505b6020821081141561147157611470611416565b5b50919050565b7f52414d5020444f45534e27542045584953545300000000000000000000000000600082015250565b60006114ad60138361119f565b91506114b882611477565b602082019050919050565b600060208201905081810360008301526114dc816114a0565b9050919050565b7f414c5245414459205553494e4720412052414d502c2046494e4953482049542060008201527f414e442050415920495420544f2055534520414e4f544845522e000000000000602082015250565b600061153f603a8361119f565b915061154a826114e3565b604082019050919050565b6000602082019050818103600083015261156e81611532565b9050919050565b7f4f776e61626c653a2063616c6c6572206973206e6f7420746865206f776e6572600082015250565b60006115ab60208361119f565b91506115b682611575565b602082019050919050565b600060208201905081810360008301526115da8161159e565b9050919050565b7f52414d5020414c52454144592045584953545300000000000000000000000000600082015250565b600061161760138361119f565b9150611622826115e1565b602082019050919050565b600060208201905081810360008301526116468161160a565b9050919050565b61165681611085565b82525050565b6000606082019050611671600083018661105b565b61167e602083018561105b565b61168b604083018461164d565b949350505050565b61169c81610e50565b81146116a757600080fd5b50565b6000815190506116b981611693565b92915050565b6000602082840312156116d5576116d4610e90565b5b60006116e3848285016116aa565b91505092915050565b7f4f776e61626c653a206e6577206f776e657220697320746865207a65726f206160008201527f6464726573730000000000000000000000000000000000000000000000000000602082015250565b600061174860268361119f565b9150611753826116ec565b604082019050919050565b600060208201905081810360008301526117778161173b565b905091905056fea2646970667358221220d082cac83657fff00b19aaedcd22731830cf60532e196a0e3a194a8b4074b50564736f6c634300080b0033",
  "immutableReferences": {},
  "source": "// SPDX-License-Identifier: NONE\r\n\r\npragma solidity ^ 0.8.11;\r\n\r\nimport './rpd_interface.sol';\r\nimport './rpd_token.sol';\r\nimport \"@openzeppelin/contracts/access/Ownable.sol\";\r\nimport \"@openzeppelin/contracts/security/Pausable.sol\";\r\n\r\ncontract highway is IRapiDrive, Ownable, Pausable {\r\n\r\n    RPDToken TOKEN;\r\n\r\n    struct RAMP {\r\n        string name;\r\n        string location;\r\n        uint price;\r\n\r\n    }\r\n    mapping(address => RAMP) in_use;\r\n    mapping(string => RAMP) ramps;\r\n\r\n    constructor (RPDToken token_address) {\r\n        TOKEN = token_address;\r\n    }\r\n\r\n    function create_ramp(string memory name, string memory location, uint price) public onlyOwner whenNotPaused {\r\n        require(bytes(ramps[name].name).length <= 0, \"RAMP ALREADY EXISTS\");\r\n        ramps[name].name = name;\r\n        ramps[name].location = location;\r\n        ramps[name].price = price;\r\n    }\r\n\r\n    function use_ramp(string memory name) public require_token whenNotPaused {\r\n        require(check_allowance(), 'PLEASE CHECK YOUR BALANCE OR ALLOWANCE.');\r\n        require(bytes(ramps[name].name).length > 0, \"RAMP DOESN'T EXISTS\");\r\n        require(bytes(in_use[msg.sender].name).length == 0, \"ALREADY USING A RAMP, FINISH IT AND PAY IT TO USE ANOTHER.\");\r\n        in_use[msg.sender] = ramps[name];\r\n    }\r\n\r\n    function check_allowance() public view require_token whenNotPaused returns(bool)  {\r\n        return TOKEN.balanceOf(msg.sender) >= 10 && TOKEN.allowance(msg.sender, address(this)) >= 10;\r\n    }\r\n\r\n    function pay_ramp() external require_token whenNotPaused {\r\n        TOKEN.transferFrom(msg.sender, address(this), in_use[msg.sender].price);\r\n        in_use[msg.sender] = RAMP('', '', 0);\r\n    }\r\n\r\n    modifier require_token() {\r\n        require(address(TOKEN) != address(0), 'Please set correct token address');\r\n        _;\r\n    }\r\n\r\n}",
  "sourcePath": "C:\\Users\\Pavon\\Desktop\\shacke4\\contracts\\rpd_highway.sol",
  "compiler": {
    "name": "solc",
    "version": "0.8.11+commit.d7f03943.Emscripten.clang"
  },
  "schemaVersion": "3.4.4",
  "updatedAt": "2022-04-25T01:03:36.008Z",
  "devdoc": {
    "kind": "dev",
    "methods": {
      "check_allowance()": {
        "returns": {
          "_0": "if the user has enough RPD TOKEN to use highway"
        }
      },
      "create_ramp(string,string,uint256)": {
        "params": {
          "location": "of the ramp which will be created",
          "name": "of the ramp which will be created",
          "price": "of the ramp which will be created"
        }
      },
      "owner()": {
        "details": "Returns the address of the current owner."
      },
      "paused()": {
        "details": "Returns true if the contract is paused, and false otherwise."
      },
      "renounceOwnership()": {
        "details": "Leaves the contract without owner. It will not be possible to call `onlyOwner` functions anymore. Can only be called by the current owner. NOTE: Renouncing ownership will leave the contract without an owner, thereby removing any functionality that is only available to the owner."
      },
      "transferOwnership(address)": {
        "details": "Transfers ownership of the contract to a new account (`newOwner`). Can only be called by the current owner."
      },
      "use_ramp(string)": {
        "params": {
          "name": "of the ramp to use"
        }
      }
    },
    "version": 1
  },
  "userdoc": {
    "kind": "user",
    "methods": {
      "check_allowance()": {
        "notice": "Check allowance from user"
      },
      "create_ramp(string,string,uint256)": {
        "notice": "Calculate the cost of a determinate ramp"
      },
      "pay_ramp()": {
        "notice": "function to pay ramps after calculate cost and check if the driver has 10 rpd tokens."
      },
      "use_ramp(string)": {
        "notice": "Check allowance from user"
      }
    },
    "version": 1
  }
}